:100000000C94E2050C94FF050C94FF050C9403225C
:100010000C94FF050C94FF050C94FF050C94FF0550
:100020000C94FF050C94FF050C941C290C94EE29EC
:100030000C9413240C94FF050C94FF050C94FF05FD
:100040000C94FF050C94FF050C94FF050C94FF0520
:100050000C94FF050C94B8240C94FF050C94FF0538
:100060000C94FF050C94FF050C94FF050C94FF0500
:100070000C94FF050C94FF050C94FF050C94FF05F0
:100080000C94FF050C94FF050C94FF050C94FF05E0
:100090000C94FF050C94FF050C94FF050C94FF05D0
:1000A0000C94FF050C94FF050C94FF05DA09DA099E
:1000B000060A060A6E0A760B760B760B8C0A020B82
:1000C000130B130B562A7D2A752B7D2A752BC92AF3
:1000D000EC2A752B432B522B564B34524E6F395012
:1000E0007772373237584338555342530064673775
:1000F000747124726D3600606060003A002E003B1F
:10010000002C0021002F005F002D000000000000E7
:1001100000000000000000000014001A0009001395
:10012000000500000004611564166817620A0000EB
:10013000001D001B00060007001900000000002938
:10014000462C442B45B25D0000000000000000007A
:10015000000000000034001C0018000F000D00001B
:100160000012710C7408781172100000003800370A
:100170000036000B000E00000000004C432A41280E
:1001800042B35D000000000000000000000000001D
:10019000004B00AC00AE00AB00A9000000E000E2A4
:1001A00000E300E100AA0000000000000049000098
:1001B0000000000000000029002C002B00000000BF
:1001C000000000000000000000000000000000002F
:1001D000004B004E0000000000E4004F00520051B0
:1001E00000500000000000A9004D004A000000007F
:1001F0000000004C002A4128000000000000000020
:10020000000000000000000000000000002F00308F
:10021000003702000000000000260227023900001B
:1002200000000000002F023002360200000000290A
:10023000002C002B00000000000000000000000067
:1002400000000000000000000000000000000000AE
:1002500000E400E600E700E5000000000000000008
:1002600000000000000000000000004C002A0028F0
:10027000420000000000000000000000000000003C
:1002800000F900FB00ED00FC00A9000000FA00EFFF
:1002900000EE00F000AA0000000000BC00AE00BBB1
:1002A00000A8000000000029002C002B0000000026
:1002B000000000000000000000000000000000003E
:1002C000000000000000000000E400E600E700E598
:1002D000000000000000000000000000000000001E
:1002E0000000004C432A002800000000000000002D
:1002F00000000000000000000000000000000000FE
:100300000000000000E000E200E300E10000000067
:1003100000000000000000000000000000000029B4
:10032000002C442B00000000000000000000000032
:100330000000000000350026002500240000000019
:10034000002E0023002200210027000000310020A1
:10035000001F001E002700000000004C002A002D96
:10036000000000000000000000000000000000008D
:1003700000000000000000000000000000E000E2BB
:1003800000E300E1000000000000000000000000A9
:1003900000000000000000000000002845000000F0
:1003A00000000000000000000000000000350064B4
:1003B0000025022402000000002E02230222022156
:1003C0000200000000310232001F021E0200000085
:1003D000000000000033022D0000000000000000BB
:1003E000000000000000000000000000000000000D
:1003F0000000000000E000E200E300E10000000077
:1004000000000000000000000000000000000029C3
:100410004600000000000000000000000000000096
:10042000000000000045004200410040004600007E
:100430000044003F003E003D004700000043003CF8
:10044000003B003A00480000000000075300000095
:10045000000000000000000000000000000000009C
:100460000014001A00080015001700000004001610
:1004700000070009000A0000001D001B000600190B
:100480000005000000000029002C002B00000000E7
:100490000000000000000000000000000013001237
:1004A000000C0018001C00000033000F000E000DAF
:1004B000000B0000003800370036000B000E000073
:1004C00000000007532A002800000000AE00AF0023
:1004D000DA0281FFD9F1DB20A4A62EAF00A0C00074
:1004E000A1C800AED580A81FD300408D1420000005
:1004F00000000000003E5B4F5B3E003E6B4F6B3EDA
:10050000001C3E7C3E1C00183C7E3C18001C577DA5
:10051000571C001C5E7F5E1C0000183C180000FF8A
:10052000E7C3E7FF00001824180000FFE7DBE7FF40
:100530000030483A060E00262979292600407F051A
:10054000050700407F05253F005A3CE73C5A007FE5
:100550003E1C1C0800081C1C3E7F0014227F221435
:10056000005F5F005F5F0006097F017F0000668912
:10057000956A0060606060600094A2FFA294000829
:10058000047E04080010207E20100008082A1C08A1
:1005900000081C2A0808001E10101010000C1E0C69
:1005A0001E0C0030383E383000060E3E0E060000AD
:1005B000000000000000005F0000000007000700CE
:1005C00000147F147F1400242A7F2A1200231308AA
:1005D00064620036495620500000080703000000FE
:1005E0001C224100000041221C00002A1C7F1C2A02
:1005F0000008083E08080000807030000008080865
:100600000808000000606000002010080402003E9E
:100610005149453E0000427F400000724949494629
:10062000002141494D33001814127F100027454521
:100630004539003C4A49493100412111090700363A
:100640004949493600464949291E00000014000066
:10065000000040340000000008142241001414146B
:100660001414000041221408000201590906003E3A
:10067000415D594E007C1211127C007F4949493678
:10068000003E41414122007F4141413E007F4949B6
:100690004941007F09090901003E41415173007F32
:1006A0000808087F0000417F4100002040413F01D1
:1006B000007F08142241007F40404040007F021C20
:1006C000027F007F0408107F003E4141413E007FD1
:1006D00009090906003E4151215E007F091929469A
:1006E0000026494949320003017F0103003F404091
:1006F000403F001F2040201F003F4038403F006324
:1007000014081463000304780403006159494D433D
:1007100000007F41414100020408102000004141D7
:10072000417F0004020102040040404040400000BC
:1007300003070800002054547840007F28444438C0
:1007400000384444442800384444287F0038545436
:1007500054180000087E0902001824241C78007F29
:10076000080404780000447D4000002040403D0023
:10077000007F102844000000417F4000007C047886
:100780000478007C08040478003844444438007C31
:100790001824241800182424187C007C0804040859
:1007A0000048545454240004043F4424003C404076
:1007B000207C001C2040201C003C4030403C004479
:1007C00028102844004C9090907C004464544C4481
:1007D00000000836410000000077000000004136AC
:1007E0000800000201020402003C2623263C00000F
:1007F0000000000080808080000000000080E07029
:10080000180C1830E080000010F89010307830108C
:10081000B8FC3810000000000000F8FCF8000000F0
:10082000000000000000000000001C9C1C000000F4
:1008300000F8FCF80000000000001CFCF8C00000FC
:100840000000000080E0F87C1C000000F0FCFCFCD4
:100850001C1C1C1C1C1C1C1C000000000000C0F008
:10086000F8381C1C1C1C1C1C3CF8F0E000E0F0F0EC
:10087000F0E0ECEEF7F37020007C7C7C7E007E7E66
:100880007E7F7F7F000080C0E07E5B4F5BFEC0000C
:1008900000C000DCD7DEDEDED7DC00C000000000D8
:1008A0000000000000000000000000000000000048
:1008B000000000000FBCE0818181838382870C18D7
:1008C0003060C000001FFE90B9FFBB91983C18112A
:1008D000133F1100000000000000FFFFFF000000B8
:1008E00000000000000000000000FFFFFF0000000B
:1008F00000FFFFFF0000000000000000030F7FF872
:10090000E080F0FC3F0F0100000000003F3F3F1C73
:100910001C1C1C1C3C78F8F0E08000000000C3E7C1
:10092000FF7E3C3878787070F8FFDF87000F1F3F3C
:100930007F7F7F7F7F3F1E0C001F1F1F3F003F3FB9
:100940003F7F7F7F00307B7F7830202030787F3B77
:100950000003000F7F0F0F0F7F0F00030000000048
:10096000000000000000000000000000000000186F
:100970003C24666341C18180808080808081C14148
:1009800062386C4CC68181808080808081C14362E6
:10099000361C1800000000000000FFFFFFC0C0C0B0
:1009A000C0C0C0C0C0C0800000007FFF7F0000004A
:1009B000007FFFFFC080000000E0E0C0C0C0E0F9A1
:1009C0007F1F0700000000000000000070F0E0E062
:1009D000C0C0C0C0E0F0F87F3F0F0000000F3F7FB5
:1009E000F9E0E0C0C0C0C0C0E0F97F3F1F000000D8
:1009F00000000000000000000000000000000000F7
:100A000000000000000000000000000000000000E6
:100A100000000000000000000000000000000000D6
:100A200000000000000000000000000000000000C6
:100A3000000000000000002A2B2800000000000039
:100A40000000000000000000000029000000002C51
:100A50001E3420212224342627252E362D373827F0
:100A60001E1F202122232425263333362E37381FFC
:100A70000405060708090A0B0C0D0E0F10111213BE
:100A80001415161718191A1B1C1D2F3130232D355C
:100A90000405060708090A0B0C0D0E0F101112139E
:100AA0001415161718191A1B1C1D2F3130354C0040
:100AB0000000000000000000000000000000000036
:100AC0000000000000000000000000000000000026
:100AD0000000007E0F00D4FFFFFFC7000000780E6B
:100AE000034C0069006C00790035003800000010EC
:100AF000036C0069006C00690075006D00730000F4
:100B0000000403090409023B00020100A0FA0904E1
:100B10000000010301010009211101000122400030
:100B2000070581030800010904010001030000001A
:100B30000921110100012232000705820320000172
:100B40001201000200000008D8042DEB0001010290
:100B5000000105010980A101850319012AB70015CB
:100B60000126B700950175108100C0050C0901A18F
:100B700001850419012AA002150126A0029501751C
:100B8000108100C005010906A101050719E029E748
:100B900015002501950875018102950175088101EF
:100BA0000507190029FF150026FF00950675088125
:100BB0000005081901290595057501910295017532
:100BC000039101C011241FBECFEFDAE0DEBFCDBF1D
:100BD00012E0A0E0B1E0EAE7FEE502C005900D9268
:100BE000AA33B107D9F725E0AAE3B2E001C01D920C
:100BF000A73BB207E1F70E943D190C943B2F0C94E0
:100C0000000080919702909198028430910599F0AC
:100C100040F4009769F082309105B9F46BE471E01B
:100C20000CC08830910571F08E30910559F00DC0DF
:100C30006FE271E002C06EE371E089E693E00E942A
:100C4000312C1AC068E571E0F8CF9F938F9386E648
:100C500091E09F938F931F9288E18F9389E693E0B1
:100C60009F938F930E94382C8DB79EB708960FB62E
:100C7000F8949EBF0FBE8DBF89E693E00895CF9391
:100C80008C33910528F4FC01E957FE4FC08101C067
:100C9000C0E21F92CF939F938F93FB0180811F929D
:100CA0008F9381811F928F9386E791E09F938F931B
:100CB0001F9288E18F9383E592E09F938F930E9428
:100CC000382C8DB79EB70E960FB6F8949EBF0FBE08
:100CD0008DBF80913C0290913D02449779F08091C4
:100CE0003C0290913D02FC01E25CFD4FC083019605
:100CF00090933D0280933C02CF91089510923D0263
:100D000010923C02EEE3F2E080E292E0E235F90775
:100D100031F38193FACF83E592E008958EE392E078
:100D2000089581E0089582E008950E94010660E040
:100D30000E94E61A0E948B0660E00E94E61A0E945A
:100D40008E0660E00E94E61A80E008950F931F93DC
:100D5000CF93DF938C01EB018A81882319F0C801BE
:100D60000E943F060E94B410809381030633110550
:100D700009F455C050F40433110509F484C008F097
:100D800090C00D32110581F0DAC00833110541F130
:100D900008F45FC0023B9DE5190709F498C0033BC6
:100DA0001D4509F4A5C0CBC08A81882339F00E9473
:100DB00075249093700280936F02BFC080916F0280
:100DC000909170020E948D2460E0883C910518F497
:100DD00089E091E002C087E091E00E94321EAFC03E
:100DE0008A818111E4CF80916F02909170020E94FC
:100DF0008D24883C910520F460E085E091E0EDCF02
:100E000080918103827221F060E083E091E0E5CF80
:100E100084E60E94F60884E60E94430990C08A8115
:100E2000882339F00E94752490936E0280936D029E
:100E300084C080916D0290916E020E948D2460E0CA
:100E4000883C910518F481E091E0C7CF8FEF90E0E6
:100E5000C4CF8A81882339F00E94752490936C0254
:100E600080936B026AC080916B0290916C020E9429
:100E70008D2460E0883C910518F48DEF90E0ADCFB3
:100E80008BEF90E0AACFCA81CC2331F0827211F0AF
:100E90008FE116C084E314C08FE10E94430984E30C
:100EA00013C0CA81CC2379F0827249F082E20E9499
:100EB000BD1060E087EF90E00E94321E3AC085E3EB
:100EC0000E94F6083AC085E30E94430939C0CA81EE
:100ED000CC23B1F1817139F081E10E94BD1060E055
:100EE0008DEE90E010C086E40E94F60886E415C0FE
:100EF000CA81CC2329F1817199F081E10E94BD1052
:100F000060E088ED90E00E94321E809181030E9493
:100F1000C41088E20E94F60888E20E9443090DC0CE
:100F200082E20E94B71084E30E94F60884E30E94E4
:100F30004309809181030E94C410C0E001C0C1E058
:100F40008C2FDF91CF911F910F91089581E008952B
:100F50000E94A606089508950E94AB070895A5E093
:100F6000B0E0E5EBF7E00C94EA2B49835A8330912B
:100F7000760289819A81311114C0662359F02223A7
:100F800049F00E945B0D182F682F89819A810E9479
:100F9000370D03C00E94490D182F69817A81812F76
:100FA00004C00E945B0D69817A810E9429142596F4
:100FB000E3E00C94062CFC01262F408151816281D4
:100FC000738184810E94AF07089581E00895CF93D3
:100FD000DF93EC0160E00E94DB07BE010E94AC07DA
:100FE000DF91CF9108950E94A11508950E949B154D
:100FF000089508950E94FC0B0E94F9072FEF84E3E7
:101000009CE0215080409040E1F700C0000008952E
:101010000E94FA070E94DE2408950E94FA070E94A7
:10102000EF2408950F931F93CF93DF938C0161E01A
:101030000E94DB07EC01B8010E94A807882309F48D
:1010400047C0B801CE010E94BA1E882309F440C0EF
:10105000B801CE010E9422208823D1F1B801CE012F
:101060000E94571C8823A1F1B801CE010E94881F5D
:10107000882371F1F8018281882331F1CB358DE528
:10108000D807E9F050F4C115FCE5DF0779F0CF3D52
:10109000DC45D1F40E944D120CC0CD35EDE5DE07E4
:1010A00059F080F0C83ADD4521F00EC00E940808D2
:1010B0000FC00E940D080CC00E948F1105C00E9435
:1010C000991102C00E949D11C8010E94A60701C08B
:1010D00080E0DF91CF911F910F9108950E94EC2342
:1010E0000E948D080E94001C08950E9491080E9491
:1010F000F523089508950E947A08089581E00895DF
:101100000E947E0808950895CF93C82F0E947B08FF
:101110008C2F0E948008CF91089580E00E9484085F
:1011200008950E942E230E9484080895CF930E9460
:101130002E23C82F80917102C81779F0C0937102D5
:101140000E948124609372027093730280937402F0
:10115000909375028C2F0E948408CF910895ABE084
:10116000B0E0E5EBF8E00C94EB2B4F8358876987F0
:101170007A878B8761110E94D7109E012F5F3F4FA6
:1011800086E0F90111928A95E9F785E0FE0137962C
:10119000D90101900D928A95E1F789819A814C815C
:1011A0005D81452B31F09F3F31F491E08F3F19F481
:1011B00003C091E001C090E090FF09C049815A81CD
:1011C0006B817C818D819E810E94001005C0C901C8
:1011D0000E94E5078111F2CF2B96E2E00C94072CD8
:1011E000FC01808191810E948D0D0895CF93882309
:1011F00009F447C0C82F8CEF8C0F813AD0F46C2FC4
:1012000080910001909101010E948523882349F07B
:101210006C2F80910001909101010E94BE230E94D9
:10122000FB106C2F80910001909101010E94BB2363
:101230000CC080E28C0F883058F4C77081E001C088
:10124000880FCA95EAF70E94B7100E94FB1019C0D8
:10125000EBE5EC0FE33040F4F0E0EF50FE4F80811F
:1012600090E00E944D230DC0C85AC73150F4EC2FB6
:10127000F0E0EE0FFF1FED53FE4F808191810E9441
:101280006323CF910895882359F1682F8CEF860F3F
:10129000813A38F480910001909101010E94BE23AF
:1012A0000CC080E2860F883058F4677081E001C07E
:1012B000880F6A95EAF70E94BD100E94FB100895FE
:1012C0008BE5860F833028F480E090E00E944D2368
:1012D0000895685A673120F480E090E00E9463230B
:1012E00008951F93CF93DF93182FEB010E94F60808
:1012F000209741F08FE99FE00197F1F700C00000CF
:101300002197F6CF812F0E944309DF91CF911F9142
:101310000895893319F060E070E002C060E570E084
:101320000E9471090895882321F00E94B7100E943D
:10133000FB100895882321F00E94BD100E94FB102D
:101340000895A0E0B0E0E7EAF9E00C94E52B7C0119
:10135000162FC72FFC01D281058102950F700E94C4
:10136000AD108823B9F0DD23A9F08C2F807F803465
:1013700021F080E2810F883068F08091870382FF3E
:1013800009C082E00E945D110E94AD1091E0D82E4C
:10139000D92601C0D12CCC2EC2948FE0C8228C2D2E
:1013A00090E08C30910508F0A1C1FC01EA5AFF4F92
:1013B0000C94D52B8C2F807FCF70882311F0C29591
:1013C000C07FDD2399F0CC2309F47CC180E2810F3A
:1013D000883010F0111104C08C2F0E94B71003C088
:1013E0008C2F0E94CA100E94FB106CC1812F0E949A
:1013F0004309CC2309F47AC180E2810F883038F1A7
:10140000112329F18C2F0E94D01024C08C2F807FB3
:10141000CF70803211F0C295C07F112319F01130C6
:10142000A1F13DC08091870382FD17C0DD2349F003
:10143000CC2329F08C2F0E94B7100E94FB1080E073
:1014400042C180E00E944309CC2309F44FC18C2F94
:101450000E94BD100E94FB1049C1DD2371F00023E2
:1014600041F0013031F40E94DA108C2B0E94E4101C
:101470003DC10E94DA108C2B1DC0002319F00130F1
:1014800009F434C10E94F11025C0DD2321F006309B
:1014900008F02CC10EC0053008F028C11BC0DD23A8
:1014A00061F0002331F0F701858180FF0BC18F705F
:1014B00085838C2F0E94930919C1002359F0193399
:1014C00009F011C1FFEF27EE83E0F150204080408A
:1014D000E1F707C18C2F0E949A0908C18C2F8695CD
:1014E0008695837019F0813061F000C1DD2321F011
:1014F000812F9C2F937002C080E090E00E944D23CA
:10150000FDC0DD2321F0812F9C2F937002C080E06D
:1015100090E00E946323F2C08C2F8370B1F5D1114B
:10152000E9C0412F429546954770440F440F812FE3
:101530008F7090E09C01042E02C0220F331F0A948A
:10154000E2F714FF0AC08FE090E002C0880F991FF5
:101550004A95E2F78095909502C080E090E0C695AC
:10156000C695C370822B932BC23049F058F4C1301A
:1015700019F00E94680CBEC00E945F0CBBC00E94A4
:10158000710CB8C00E945C0CB5C0DD2319F08C2F23
:10159000817001C08695882309F4ACC0412F429523
:1015A00046954770440F440F812F8F7090E09C0147
:1015B000042E02C0220F331F0A94E2F714FF0AC060
:1015C0008FE090E002C0880F991F4A95E2F780955E
:1015D000909502C080E090E0C695C695C370822BBE
:1015E000932BC23049F058F4C13019F00E94D20C4C
:1015F00081C00E94C90C7EC00E94DB0C7BC00E948F
:101600007D0C78C0CF70DD2339F08C2F0E94970CB1
:10161000812F0E9493096EC0812F0E949A098C2FFE
:101620000E94A70C67C0123F21F128F4103F41F03F
:10163000113FC1F043C0133F19F1143F79F03EC090
:10164000DD2341F0053008F051C08C2F8F710E94CE
:10165000B90C4CC0063008F049C0F7CF8091870321
:1016600082FD18C0DD2339F08C2F8F710E94970CFA
:101670003DC0DD23C9F38C2F8F710E94A70C36C0AB
:10168000DD2329F08C2F8F710E948B0C2FC00E94BC
:10169000860C2CC0DD2349F0CF718C2F0E94970C53
:1016A00063E08C2F0E943F1121C081E00E945D11F8
:1016B0000230E0F082E00E945D1118C0DD2331F0BD
:1016C000002391F2812F0E94F60810C0002399F2A6
:1016D000193349F49FEFE7EEF3E09150E040F0401A
:1016E000E1F700C00000812F0E94430988EF8C0DB4
:1016F000843020F40E942E230E948408DD2089F08B
:101700000E94A91080FD0DC0F70112820E94A31053
:101710000E94970CC7010E94AE0B0E94A3100E946A
:10172000A70CCDB7DEB7E8E00C94012C0F931F9304
:10173000CF93DF93EC01688179818A810E94980DB3
:101740008C010E94E40C0E944B0CB801CE010E9457
:10175000A109DF91CF911F910F910895CF93DF934E
:10176000EC01988189812B813C81232B31F08F3FC3
:1017700031F481E09F3F19F403C081E001C080E0B3
:1017800080FD1AC0CE010E94120881110FC00E9474
:10179000AD10882389F08A81882371F080918703B6
:1017A00082FF0AC082E00E945D1106C0CE010E9445
:1017B000960BCE010E94E707DF91CF910895882311
:1017C00021F00E94D0100E94FB10089580E090E06C
:1017D0000E944D2380E090E00E9463230E94D71076
:1017E0000E94FB10089580910001909101010E94D8
:1017F000C1230E94E60B08950E94C7100E94F30BBC
:10180000089592959F70963079F010F4925001C02F
:101810009A50923068F4803F69F018F4883E40F4A2
:1018200009C0843F29F406C0883E20F0813F11F0B2
:1018300080E0089581E00895FC01908181812381F9
:101840003481232B31F08F3F31F481E09F3F19F435
:1018500003C081E001C080E080FD07C080819181EC
:101860000E948D0D0E94010C089580E00895A5E06E
:10187000B0E0EDE3FCE00C94EB2B2596E2E00C9459
:10188000072CA6E0B0E0E7E4FCE00C94EB2B2696F6
:10189000E2E00C94072C089508950E944C0C0895E2
:1018A0000E944D0C08950E94500C90939A028093D0
:1018B00099020E94E60B08950E94530C089520910E
:1018C000990230919A02822B932B0E94530C089517
:1018D0002091990230919A02822393230E94530C03
:1018E00008952091990230919A02822793270E94AD
:1018F000530C08950E944C0C08950E947A0C90930A
:101900009802809397020E94E60B089580E090E091
:101910000E947D0C089521E030E0A90102C0440F2F
:10192000551F8A95E2F7CA010E947D0C089521E0B7
:1019300030E002C0220F331F8A95E2F780919702B0
:1019400090919802822B932B0E947D0C089521E0A8
:1019500030E002C0220F331F8A95E2F720953095C0
:101960008091970290919802822393230E947D0C8C
:10197000089521E030E002C0220F331F8A95E2F77C
:101980008091970290919802822793270E947D0C64
:1019900008952091970230919802822B932B0E94F8
:1019A0007D0C089520919702309198028223932311
:1019B0000E947D0C08952091970230919802822711
:1019C00093270E947D0C08950895962F9770A1E0AB
:1019D00001C0AA0F9A95EAF793E0769567959A95D4
:1019E000E1F7660F771F660F771FFA01E60FF71F03
:1019F00040E050E0682F70E090819B01042E02C00F
:101A0000369527950A94E2F72170219529272A23F4
:101A1000292721934F5F5F4F4430510569F708959F
:101A2000FB01782F777023E0969587952A95E1F74B
:101A3000880F991F880F991FE80FF91F40E050E0A9
:101A400080E0219130E0072E02C0369527950A9458
:101A5000E2F721703327042E01C0220F0A94EAF71F
:101A6000822B4F5F5F4F4430510559F70895282F5F
:101A70009A3070F4863060F4862F622F70E026E092
:101A8000929F600D711D112447E752E00E94E50C02
:101A900008959A3070F4863060F4292F90E067E75B
:101AA00072E036E0239F800D911D11240E94100DDD
:101AB000089580E00895A0E0B0E0E1E6FDE00C9438
:101AC000E42B7C0100919702109198028091990279
:101AD00090919A02082B192BCFE0D0E0CC24C3942C
:101AE000D12CC6010C2E02C0880F991F0A94E2F770
:101AF00080239123892B21F4219798F7B12C07C0DB
:101B0000BC2EB7018C2F0E9442140197A9F38B2D94
:101B1000CDB7DEB7E9E00C94002CCF93DF93EC0156
:101B20000E945B0DBE010E944214DF91CF91089587
:101B30001F93CF93DF93EB0190917602992321F0CD
:101B4000CB010E948D0D13C0882349F0CB010E9468
:101B50005B0D182F682FCE010E94370D04C0CB01FA
:101B60000E94490D182FBE01812F0E944214DF915F
:101B7000CF911F9108951F93CF93DF93C0919B0244
:101B800016E080919C02C81799F0D0E01C9FF001EC
:101B90001D9FF00D1124E356FD4F4081518162815C
:101BA0007381848195810E94410C2196C770E9CF91
:101BB000DF91CF911F9108954091CD025091CE02B7
:101BC0006091CF027091D0028091D1029091D202A7
:101BD0000E94410C08950F931F93CF93DF93809140
:101BE000D20282958F7009F05AC08091CF0288236B
:101BF00009F455C080919B0210919C026091CD0226
:101C00007091CE02C091D002D091D10291E06F3F8D
:101C100009F090E0292F06E0811709F440C02097D1
:101C200021F07F3F21F030E003C031E001C0322FCE
:101C300090E030FD31C0089FF001099FF00D1124A4
:101C4000DF01A356BD4F11963C911197371324C065
:101C50003C91361321C012963C91129731111CC051
:101C600013964D915C9114974C1B5D0B483C5105AC
:101C700098F48091D2028F7080618093D202EE55E9
:101C8000FD4F80818F70806180838DEC92E00E9497
:101C9000AE0B0E94BB0D03C001968770BDCFDF91D4
:101CA000CF911F910F910895A1E1B0E0EAE5FEE028
:101CB0000C94E22B8C0185E0F801DE011D96019069
:101CC0000D928A95E1F7F801E2809091CD02609142
:101CD000CE022091D0023091D1022115310531F090
:101CE0006F3F31F481E09F3F19F403C081E001C0F0
:101CF00080E0F82FF1709F2E80FD40C1F8014081F7
:101D00005181A380B4808DECC82E82E0D82EF09053
:101D1000CF02F501E21BF30BFF2009F4DAC080913A
:101D2000D202E83CF10508F096C0282F207F09F088
:101D300053C0561313C0491311C0FE2CE1100EC03E
:101D40008F7080618093D2020E94DC0DC6010E94D8
:101D5000AE0B8091D202F80185834DC1A114B1046C
:101D600031F05F3F31F481E04F3F19F403C081E06F
:101D700001C080E080FD03C081E08E2502C080E0CC
:101D800090E0F82FF170FF2E80FF1CC080919B0225
:101D900020919C0236E0821709F40BC190E0389F35
:101DA000F001399FF00D1124E356FD4F6181561368
:101DB00006C06081461303C06281E61203C001962B
:101DC0008770E9CFFE2CEE2009F415C18091D20274
:101DD00081608093D20254C0561306C0491304C0D8
:101DE000E11002C0F80199C0C8010E941C0C8823B0
:101DF00061F1EE2051F12091D202822F82958F70F5
:101E000090E0029774F08091CD029091CE02988775
:101E10008F831986BB86AA862C87CE0107960E94DF
:101E2000AE0B86E0F801ADECB2E001900D928A9520
:101E3000E1F70E94EB0D0E94DC0D0AC0561711F16C
:101E4000C8010E941C0C81112CC0C8010E94AE0B5D
:101E5000FF24F394D0C0282F207F81F77A2DB98AF0
:101E6000A88A6E2D89890E94370C8DEC92E00E9421
:101E7000AE0B86E0F60111928A95E9F70E94DC0D1F
:101E8000F12CB9C04913DCCFE110DACFF80185831A
:101E9000C8010E94AE0B86E0F60111928A95E9F71F
:101EA000AAC0EE2091F22091D202822F82958F70EB
:101EB00090E002970CF4B5CF8091CD029091CE02C4
:101EC0009A8389831B82BD82AC822E83CE010196C8
:101ED000A6CFE83CF10508F044C0FE2CEE2009F442
:101EE000B4CF561330C049132EC02091D20220FD2A
:101EF00021C0822F82958F70482F50E041155105E7
:101F0000C9F0F80125834F30510541F08F5F982FBC
:101F10009295907F822F8F70892B8583C8010E94B4
:101F2000AE0B86E0F801ADECB2E001900D928A951F
:101F3000E1F73CC086E0F801ADECB2E001900D9213
:101F40008A95E1F758C0C8010E941C0C811169CF25
:101F50008091D20281608093D202C8010E94AE0BB0
:101F60004AC07A2DB98AA88A6E2D89890E94370CB9
:101F700086E0F60111928A95E9F718C0EE2009F47F
:101F800064CFC8010E941C0CF82E882309F45DCF91
:101F900086E0F801ADECB2E001900D928A95E1F790
:101FA0008DEC92E00E94F0080E94EB0D0E94DC0D87
:101FB00022C04D875E878D859E850E948D0D292FBD
:101FC00022952F70223028F49F7039F0811105C0BE
:101FD0000BC0243028F49F7049F4805E883020F0D4
:101FE000C8010E94AE0B9F2CF92C05C0F801958109
:101FF000907F99F7F9CF8F2D6196EBE00C94FE2B33
:10200000ACE0B0E0E6E0F0E10C94EA2B4F835887B7
:1020100069877A878B879C87CE0107960E94540E2A
:102020008823D1F09F8188852A853B85232B31F039
:102030008F3F31F481E09F3F19F403C081E001C07C
:1020400080E080FD47C04F81588569857A858B8502
:102050009C850E94410C3EC086E0FE013796DE0161
:10206000119601900D928A95E1F7FF81E8856A85C6
:102070007B856115710531F0EF3F31F481E0FF3F61
:1020800019F403C081E001C080E080FD23C02091ED
:102090009C0230E0C90101968770992740919B020C
:1020A00050E084179507F1F1F983EA837D836C830F
:1020B00096E0929FD001939FB00D1124A356BD4F7F
:1020C000FE01319601900D929A95E1F780939C0262
:1020D0000E94BB0D16E080919B0290919C02891793
:1020E00071F1189FC001112483569D4F0E94540E18
:1020F000882329F1E0919B021E9FF0011124E356F1
:10210000FD4F4081518162817381848195810E945C
:10211000410C80919B0290E00196877099278093F3
:102120009B02D9CF0E94FC0B10929C0210929B0242
:10213000EDECF2E086E0DF011D928A95E9F72C963E
:10214000E3E00C94062C8091DB02859585958595BE
:1021500008958091DB02877008959091DB0297705B
:1021600081E009F480E008958091E602089590915D
:10217000E602892B8093E602089580959091E6020D
:1021800089238093E60208958093E60208951092D1
:10219000E60208959091E502892B8093E502089567
:1021A00080959091E50289238093E502089510922D
:1021B000E50208958091DC02089508950E94DD10E3
:1021C00008950E94DE1008959091870392FF08C041
:1021D0009091DC02981721F08093DC020E94E110BC
:1021E00008958091DC02882329F01092DC0280E0BF
:1021F0000E94E1100895CF93DF93E0910001F091E8
:1022000001018091E6028083E0910001F0910101DB
:1022100090818091E502892B80838091DC02882364
:1022200081F0E0910001F09101019081892B808380
:1022300080910001909101010E94792381110E94F7
:10224000F110C0910001D091010148E050E063ED30
:1022500072E0CE010E941B2C892B59F088E0FE0110
:10226000A3EDB2E001900D928A95E1F7CE010E94B4
:102270004223DF91CF9108950E94DD10089590913F
:10228000870392FF11C098E0899F90011124262BAB
:102290002093DB020E94970C8091DB028595859547
:1022A00085950E943C1108950E94970C0895109204
:1022B000DB0280E00E943C1108952091DB028095B2
:1022C00082238093DB02982F977099F430E0482F97
:1022D000082E000C550B2417350759F090918703F1
:1022E00092FF07C08595859585950E94A70C0E9451
:1022F000571108959091870392FB222720F9281700
:1023000069F080FB92F99093870380918603909106
:1023100087030E94C71182E00E945D110895809199
:10232000870382FB882780F991E089270E947A1130
:10233000089581E00E947A11089580E00E947A1148
:10234000089580E090E00E94012F21E0883E9E4F9A
:1023500009F020E0822F089582E090E00E94F92E9B
:10236000089583E090E00E94F92E0895CF9384E0D1
:1023700090E00E94F92EC82F82E290E00E94F92E90
:102380002C2F30E0A901582BCA01CF910895CF938B
:10239000C92F682F84E090E00E94072F6C2F82E203
:1023A00090E00E94072FCF910895AB01BC018FE010
:1023B00090E00E94192F0895AB01BC0183E190E0E9
:1023C0000E94192F089560E070E0CB010E94DC119B
:1023D000089560E070E0CB010E94D5110E94E311E6
:1023E000089568EE7EEF80E090E00E94252F60E087
:1023F00082E090E00E94072F60E083E090E00E947E
:10240000072F10929A021092990260E084E090E007
:102410000E94072F64E082E290E00E94072F60E0B4
:1024200085E090E00E94072F60E086E090E00E9447
:10243000072F6FEF87E090E00E94072F40E050E009
:10244000BA0188E090E00E94192F60E08DE090E0F2
:102450000E94072F40E050E0BA0188E190E00E941E
:10246000192F60E087E190E00E94072F40E050E0E4
:10247000BA018CE190E00E94192F60E070E080E2E8
:1024800090E00E94252F40E050E0BA0188E190E002
:102490000E94192F0E94E91108950E94F1110895D8
:1024A000682F8EE090E00E94072F08950E948124FB
:1024B0006093F7027093F8028093F9029093FA0206
:1024C0006093F3027093F4028093F5029093F60206
:1024D000089508950E94691208950E94691208954E
:1024E0000E946D1208950E94691208950E9473124D
:1024F00008950E946912089586E695E10E942423BA
:102500000E9479120E94761208950E946A120E9417
:10251000691208950E9469150E94830808950E9417
:102520006C240E9426150E944F170E9497160E9445
:102530008A120E944A1980E00E94A2190E9459172B
:102540000E94701208950E94341781110E946C1F1E
:102550000895AAE0B0E0EFEAF2E10C94E32B0E94C8
:10256000BC1689EEE82E82E0F82E670100E0F60145
:1025700011916F01802F0E94871581270F5F0A300C
:1025800019F08823A1F322C0811120C00E94752474
:102590008C018091E7029091E8020817190709F46D
:1025A0005EC08FEF89838A831B820E9475248160BD
:1025B000782F9D838C8349815A816B818D810E9404
:1025C000AF081093E8020093E70249C08091FB0234
:1025D00081FD0E948D150E949106A82E10E0812F8A
:1025E0000E948715B82EF701C080C82611F100E0BF
:1025F000DD24D3948C2D8D21B1F0AA20A1F00E837F
:102600001F8391E08B2D8D2109F490E098870E9423
:1026100075248160782F9A8789874E815F816885CC
:102620008A850E94AF080F5FDD0C063019F7F701AD
:10263000B0821F5FFFEFEF1AFF0A1A3081F60E9487
:10264000561211E00E94A3120E941D1C11110E943B
:10265000EC1A0E9496082A96EAE00C94FF2B10E0F0
:10266000F1CFCF93DF930E944714EC01811522E54F
:102670009207F0F5811531E5930708F0ABC0883E6D
:10268000910528F5803E910508F0DFC0883A910554
:1026900070F4853A910508F07AC08130910509F40B
:1026A00073C008F4CFC0049708F0CFC0CBC08F3BF5
:1026B000910508F0C7C0C85AD0E0CC0FDD1FCC5040
:1026C000DE4F0990D881C02DCE019464BFC0811522
:1026D00040E5940708F069C0C11580E4D80708F008
:1026E00060C0CE019A9581159F4108F4AEC0AAC082
:1026F000811536E5930728F5811545E5940708F01F
:1027000086C0C11584E5D80708F07BC0AE014370D0
:1027100055272C2F26952695C115D34508F060C066
:1027200081E090E002C0880F991F4A95E2F740E2ED
:10273000249F90011124EC01C22BD32BCE019C6865
:1027400085C081154AE5940780F4C11589E5D8074D
:1027500008F066C0C11528E5D20708F473C0DC2F65
:10276000CC27CE01806F906A71C09056811590423F
:1027700008F068C08D2F8F710E94E314DD27D062AE
:102780008F719E01382B5CC081E090E05FC0C55A1C
:10279000D0E0CE5DDD4F8881C82FD0E0CE019064BF
:1027A00055C0DF70CE01906A51C08370992721E037
:1027B00030E002C0220F331F8A95E2F79C2F9695D6
:1027C000969540E2949FE0011124C22BD32BCE01B9
:1027D0009D683CC0D82FCC27CE01816F906A36C04F
:1027E00081E090E002C0880F991F4A95E2F740E22D
:1027F000249F90011124EC01C22BD32BCE019A68A7
:1028000025C0DC2FCC27CE01846F906A1FC00E94A8
:10281000E3148F7190E0D82FCC27CE01906216C0C0
:102820008C2F8F700E94E31494E0D695C7959A95EB
:10283000E1F7CF70D0E0DC2FCC27D0699E01282BA8
:10284000C90104C080E090E001C0CE01DF91CF91CA
:1028500008957A30A0F4663090F49CE3899FF001EB
:10286000112486E0789FE00DF11D1124E60FF11D83
:10287000EE0FFF1FE55FFE4F85919491089580E074
:1028800090E008950E9429140E943113089582381F
:10289000910569F1B0F48133910509F475C048F4EC
:1028A0008932910509F467C08A32910509F471C033
:1028B00008958533910509F459C089339105B9F01C
:1028C0000895833E910589F138F4803E9105D1F059
:1028D000823E910529F10895863E9105C9F1873E12
:1028E0009105D9F1843E910509F06CC027C0209173
:1028F000860320FD57C021FD55C02091870323FD8D
:102900005BC008958091860380FD48C08091870355
:1029100080FF48C08091860384FD46C083EE51C08D
:102920008091860382FF3CC0F5CF8091860382FDB3
:1029300037C08091870380FD35C0ECCF809187033D
:1029400081FF36C08091860384FD2EC087EE39C09A
:102950008091860383FF2AC0F5CF8091860383FD93
:1029600025C08091870381FD23C0ECCF8091860331
:1029700085FD22C01FC08091860385FD1BC080910C
:10298000870383FF19C00AC08091860386FD16C0A5
:1029900017C08091860386FD13C010C089E311C063
:1029A00082EE0FC080EE0DC080E00BC086EE09C045
:1029B00084EE07C085E305C089E203C08AE201C056
:1029C00081E390E008959091860392FF0DC0282F37
:1029D0002871283019F4877F846006C0282F24715D
:1029E000243011F48B7F886093FF0DC0282F28714D
:1029F000283119F4877E846106C0282F2471243180
:102A000011F48B7E88612091870320FF0DC0382F41
:102A10003871383019F4877F816006C0382F3171E2
:102A2000313011F48E7F886021FF0DC0282F28716E
:102A3000283119F4877E816106C0282F2171213148
:102A400011F48E7E886194FD877E08951092820332
:102A50001092830310928403109285030895CF92FD
:102A6000DF92EF92FF926B017C010E94341781117B
:102A70000EC00E948124C61AD70AE80AF90AC09239
:102A80008203D0928303E0928403F0928503FF9047
:102A9000EF90DF90CF9008950F931F930E9434170B
:102AA000882319F00E9481240EC00E948124009185
:102AB0008203109183032091840330918503600F7A
:102AC000711F821F931F1F910F91089580E0089539
:102AD00008950E94A111811102C00E944D120E940E
:102AE000AC118093FB020E94B611909387038093F0
:102AF00086030E9468150E94B11190E00E945C0C50
:102B000080919702909198020E947A0C0895E82F84
:102B1000F0E0ED56FC4F80810895089580EA8A9593
:102B2000F1F7089500C008950E948E150895089544
:102B30000E94971508950E94981508950E94971570
:102B400008950E949E1508950E9497150895A5E086
:102B5000B0E0EDEAF5E10C94E82B0E9434176091A7
:102B60009D038823E9F185E0F82E8E010F5F1F4F4A
:102B7000F8018F2D11928A95E9F7862F90E0B80120
:102B80008D569C4F0E946717882389F08091880397
:102B900090E045E050E0B8018D569C4F0E941B2C00
:102BA00021E02093FC02892B61F410E016C0809193
:102BB000FC028823D1F3F8011192FA94E9F71092FC
:102BC000FC02A0918803B0E0AD56BC4F85E0F8014F
:102BD00001900D928A95E1F711E00E94F6070DC071
:102BE00070E06D567C4F8091880390E08D569C4F2D
:102BF0000E94F0170E94A41510E0812F2596E5E0B1
:102C00000C94042CF894E82FE295EF70F0E031A1D9
:102C1000282F2F7081E090E001C0880F2A95EAF7F5
:102C2000982F9095932391A392A1892B82A37894B6
:102C300008950F931F93CF93DF93CBE2D2E0899156
:102C40008F3F11F00E94021682E0C033D807B9F717
:102C5000C5E2D2E00BE212E089918F3F11F00E94B1
:102C600002160C171D07C1F7DF91CF911F910F912D
:102C70000895A0E0B0E0EFE3F6E10C94E52B8C01C1
:102C8000C62FD0E0CE01855D9D4F7C01FC01908177
:102C90009F3F09F447C0D62EF894E92FE295EF70D4
:102CA000F0E081A19F7021E030E001C0220F9A95F1
:102CB000EAF7822B81A382A12095282322A378946E
:102CC0000E949215E5E2F2E04BE252E031E0C12CC5
:102CD00021912F3F89F0A22FA295AF70B0E090967E
:102CE0008C9190E02F7002C0959587952A95E2F718
:102CF00080FD02C0832F01C080E0C82A330F4E1729
:102D00005F0731F7F70180818F3F11F00E940216B3
:102D100061E0C11001C060E08D2D0E949415C00FCC
:102D2000D11FC882CDB7DEB7E8E00C94012C8091AA
:102D3000020180910201811102C095E001C090E082
:102D400090939D0385E0891B809388030E94191648
:102D50008AE0E3E9F3E0DF01982F1D929A95E9F705
:102D6000E9E8F3E0DF011D928A95E9F785E00E942A
:102D7000FA160E94F3070895AAE0B0E0E2ECF6E14B
:102D80000C94E82B8E010F5F1F4F8AE0F80111921F
:102D90008A95E9F7F12C6F2DC8010E943916F3943A
:102DA000F5E0FF12F8CF4AE050E0B80189E893E07F
:102DB0000E941B2C21E0009709F420E0892B41F0B0
:102DC0008AE0F801A9E8B3E001900D928A95E1F755
:102DD00060919D0370E06D567C4F45E089E893E07B
:102DE0000E94FB16182F0E94A715812B2A96E5E05A
:102DF0000C94042C0895EF92FF920F931F93CF939E
:102E0000DF937C018B01C42F222349F081E0809362
:102E1000FF020E9475249093FE028093FD02809130
:102E2000FF02811102C080E01AC08091FD029091E2
:102E3000FE020E948D240597B0F3D0E0AE01B701E9
:102E4000C8010E941B2C892B39F0AE01B701C801C3
:102E50000E94282C81E001C080E01092FF02CDB7D3
:102E6000DEB7E6E00C94032C8091020381110DC0C3
:102E70000E94A82B811102C082E001C081E08093F2
:102E80000203823011F40E94A32B81E0909102038F
:102E9000913009F080E008950E94341708950E944F
:102EA0004C17809302010E94341781110E949F17D2
:102EB00008950E943417811102C00E94A21708953C
:102EC00081E0909103039A3008F080E008950F9319
:102ED0001F93CF93DF93EC018B01809103038A3022
:102EE00038F4B801CE010E94ED1781111DC00AC04F
:102EF00080910003909101030E948D24843F9140B2
:102F000080F715C0809103038F3F19F08F5F809386
:102F10000303809103038A3060F00E94752490932C
:102F200001038093000303C01092030302C080E0FA
:102F300001C081E0DF91CF911F910F9108950E9410
:102F4000BE2108950E94C1210895A0E0B0E0EBEAFF
:102F5000F7E10C94E62B7901C82F880FDD0B4115A2
:102F60005105A9F0FE0193E0EE0FFF1F9A95E1F7DE
:102F7000ED5FFE4F818192818C5F9C4F208130E01C
:102F80004217530708F49A01A9010E94282CCE0188
:102F90000E94A922D82E8823D1F001151105B9F07D
:102FA00083E0CC0FDD1F8A95E1F7FE01ED5FFE4F58
:102FB000438150E00417150708F4A801CD5FDE4FE8
:102FC0006C817D816C5F7C4FC7010E94282C8D2D08
:102FD000CDB7DEB7E7E00C94022C0E94E21808950A
:102FE0000E94F9180895A4E0B0E0E9EFF7E10C942D
:102FF000E92B60911B0370911C0380911D0390913C
:103000001E030E949C24643671058105910528F1F8
:103010000E944C15DC01CB010296A11DB11D8983D4
:103020009A83AB83BC8300E010E020E030E044E012
:1030300050E0BE016F5F7F4F82E00E94A517182FFE
:10304000882361F00E94812460931B0370931C030A
:1030500080931D0390931E0301C011E0812F2496DD
:10306000E4E00C94052CA0E0B0E0E9E3F8E10C9476
:10307000E32B7C015B016A010E946017811103C090
:1030800001E010E002C00AE010E0C1E0D0E0B501CC
:10309000C701F6010995811115C021960C171D076E
:1030A00094F0CC9F9001CD9F300D300D112480E025
:1030B00090E045E34A95F1F70000019682179307E7
:1030C000C1F7E5CF81E0CDB7DEB7EAE00C94FF2B86
:1030D000A6E0B0E0EEE6F8E10C94E32B7B01C090B3
:1030E0003002D090310201E010E09E012A5F3F4F94
:1030F00040E050E060E070E080E00E94A517182FEB
:10310000882309F43EC056018FEFA81AB80A6091CF
:103110001703709118038091190390911A030E946C
:103120009C24643671058105910518F105E010E0D5
:103130009E012F5F3F4F40E050E060E070E081E093
:103140000E94A517182F65E070E0C5010E944B1979
:1031500091E02E81281390E0192339F10E948124F7
:1031600060931703709318038093190390931A03C5
:1031700011C065E070E0C5010E944B199E81891362
:10318000D5CF85E0F6013196DE01119601900D92C2
:103190008A95E1F7112349F085E0FE013196A2E11D
:1031A000B3E001900D928A95E1F785E0E2E1F3E06A
:1031B000D70101900D928A95E1F7812F2696EAE0DA
:1031C0000C94FF2B0F931F93CF93DF93EC018B0194
:1031D00048E658E10E943318882331F043EF57E165
:1031E000B801CE010E943318DF91CF911F910F914A
:1031F00008950F931F93CF93DF93C0913002D09126
:103200003102CE01019625E0FB01DC0101900D9217
:103210002A95E1F765E070E00E944B1988836E8182
:103220007F818885998500910E0310910F0320916D
:10323000100330911103601771078207930751F053
:1032400060930E0370930F03809310039093110308
:103250000E942F15DF91CF911F910F9108950E9429
:1032600076260E948F120E94832608950E94882647
:103270000E94A9120E94A22608950E940C240E9476
:103280005C260E947C120E942F190E9436190E940F
:103290008512FBCF0895FC01680F791F8FEF91E332
:1032A000E617F70771F02191822728E030E087FFC9
:1032B00003C0880F892701C0880F21503109B9F751
:1032C000EFCF0895EF92FF920F931F93CF93DF9369
:1032D000EC017B0164E670E088E70E947A208C01B3
:1032E000EC0EFD1ECE15DF0561F017FD0AC0FE01D4
:1032F000849164E670E00E94ED208C012196892B78
:1033000089F30E946421C801CDB7DEB7E6E00C94D2
:10331000032C08950E9489190895EEE9F3E080E0F6
:1033200092E0DF019C011D9221503040E1F7F093C3
:10333000A505E093A4058FEF9FEF90934B03809337
:103340004A0308950E948A190E94930680934603B7
:1033500080FD02C080E801C080E2809345030E94A6
:1033600074206DE070E082EE94E00E946219892B77
:1033700011F080E008958091460363E070E081FDE4
:1033800003C08FED94E002C08CED94E00E946219BE
:10339000892B79F76DE070E08FEC94E00E94621960
:1033A000892B39F70E948124DC01CB01805A954199
:1033B000AF4FBF4F8093A0059093A105A093A205A6
:1033C000B093A3050E948D1981E0809349038093F7
:1033D00048031092470308952091450336E0839FE8
:1033E000C0011124629F800D911D1124811522E0DE
:1033F000920714F080E090E082569C4F9093A505D0
:103400008093A40508952091A4053091A50528591D
:10341000334040914503642F70E0C9010E94C12BE5
:10342000481B463010F4240F311D211582E0380767
:1034300010F020E030E022563C4F3093A505209359
:10344000A40508951F93CF93DF93162F8A3011F4AC
:1034500081E003C08D3021F480E00E949A1A66C09A
:10346000C091A405D091A50596E0FE01AFE1B3E0BF
:1034700001900D929A95E1F7803E30F086E0FE01D2
:1034800011928A95E9F70BC0F6E08F9FB0011124E5
:1034900061517B4F46E050E0CE010E94122C111189
:1034A00035C0C091A405D091A50546E050E0BE010D
:1034B0008FE193E00E941B2C892BB1F1CE59D340B0
:1034C0009E0185E0369527958A95E1F781E090E0A9
:1034D000AC0102C0440F551F2A95E2F720914A0320
:1034E00030914B03242B352B259645E0D695C79577
:1034F0004A95E1F702C0880F991FCA95E2F7822B1F
:10350000932B90934B0380934A030EC0E091A40544
:10351000F091A5059F012A5F3F4F2E173F0709F243
:10352000808180958193F9CF0E94031ADF91CF911A
:103530001F910895CF93E82F2091A4053091A50500
:103540002E59334040914503642F70E0C9010E9419
:10355000C12B481B842FEE2359F066E00E94B52B47
:10356000C82FC150B0F060E080E20E94221AF9CF6B
:10357000A901480F511D4115524018F080E020E08C
:1035800030E0280F311D22563C4F3093A505209383
:10359000A405CF910895FF920F931F93CF93DF93CC
:1035A000EC01F62EFC0101900020E9F78F0101509B
:1035B0001109C017D10728F46F2D89910E94221A92
:1035C000F8CFCDB7DEB7E5E00C94042C0E94CB1AFF
:1035D00081E00E949A1A0895809149038823F9F0A6
:1035E0000E948124DC01CB01805A9541AF4FBF4F2F
:1035F0008093A0059093A105A093A205B093A30585
:103600008091480381110BC062E070E08DEC94E082
:103610000E946219892B19F481E0809348038091FC
:1036200048030895A0E0B0E0E8E1FBE10C94DF2B53
:1036300080914903882309F4DEC020914A03309128
:103640004B032115310509F4D6C080914703811140
:10365000D2C061E070E0082F10E03B01082E02C0EC
:10366000660C771C0A94E2F7A90146215721452BE5
:1036700011F48F5FF0CF90914603980165E0220F1F
:10368000331F6A95E1F790FD12C08295880F80760E
:1036900080931D01220F232F221F330B319520937E
:1036A0002001815E80931E011092210112C045E02D
:1036B000369527954A95E1F7220F220F220F209386
:1036C0001D0110922001295F20931E0183E0809349
:1036D000210124E630E047E050E06BE171E088E74B
:1036E0000E941C21892B09F086C08091460380FD31
:1036F00023C0A80195E0440F551F9A95E1F7425663
:103700005C4F04E610E020E230E060E488E70E94CD
:103710003D21892B09F06FC00E94EC1AE301C0958E
:10372000D09580914A0390914B03C823D923D0931D
:103730004B03C0934A035FC080E2E5E2F3E0DF01A0
:103740001D928A95E9F785E0000F111F8A95E1F730
:10375000A6E3B2E042E352E0992493942D91EA016A
:103760008991AE01B801680F711D62567C4F30E03F
:103770002B5D3C4FF90197E07F01E21AF30AA92C77
:1037800001C0AA0CEA94EAF77B01B12CE701899108
:103790007E018A21892E8B18D82DD770CD2E0D2E23
:1037A000000CDD08C82F01C0CC0FDA95EAF78C2E8B
:1037B000D194C194D108D7E0CD22DD240C2C01C0D6
:1037C00086950A94EAF78C2BD0808D298083B39458
:1037D00088E0B812DBCF915031969F3F69F6C2E086
:1037E000AA33BC0709F0BACF04E610E020E230E0CB
:1037F00045E253E08ACFCDB7DEB7EEE00C94FB2B69
:103800008091490390914803882389F0992369F0B6
:1038100062E070E08BEC94E00E946219892B19F051
:10382000809148030895109248039091480381E0E5
:10383000892708950E94950608950F931F938091FC
:103840004903882389F180919E0590919F050E94EC
:103850008D24C29760F00E94752490939F058093F9
:103860009E0560E080E00E94EC190E941A1C0E94F4
:10387000121B809148038823B9F00E948124009193
:10388000A0051091A1052091A2053091A305DC01AE
:10389000CB01801B910BA20BB30B8F3F9F4FAF4F00
:1038A000BF4710F40E94001C1F910F910895CF9301
:1038B000DF93EC01FB018281882309F472C1C430DB
:1038C000FDE5DF0760F4CB3F9CE5D907D0F49E010E
:1038D00022503C452431310508F064C112C0C63A7B
:1038E000EDE5DE0771F030F4C2369DE5D90709F049
:1038F00059C107C09E012E5A3D452330310508F0BD
:1039000051C10E94B6119093870380938603C23100
:10391000ECE5DE0709F405C108F04BC0C9308CE5C1
:10392000D80709F4D2C000F5C530ECE5DE0709F48C
:10393000B9C078F4C3308CE5D80709F4AAC008F000
:10394000AEC0C230DC4509F022C18091860381609F
:10395000A3C0C730FCE5DF0709F4AFC008F0B1C071
:1039600080918603806198C0CD309CE5D90709F429
:10397000C2C058F4CB30FCE5DF0709F4B0C008F052
:10398000B6C0809186038860A6C0CF309CE5D90779
:1039900009F4BFC008F4B2C0C031FCE5DF0709F488
:1039A000BCC0C131DC4509F0F2C0809186038F7B39
:1039B00073C0C1159DE5D90709F4BEC088F5CB3F9A
:1039C000FCE5DF0709F472C0B8F4C4319CE5D907FF
:1039D00009F4C1C008F4ABC0C531DC4509F0D7C05B
:1039E0008091860382FB222720F991E0922790FBA9
:1039F00082F990FB83F950C0CD3F8CE5D80709F4DC
:103A000081C008F456C0CE3FECE5DE0709F47DC066
:103A1000CF3FDC4509F0BBC08091870382605DC069
:103A2000C2368DE5D80709F4A6C068F4C230EDE5CA
:103A3000DE0709F49CC008F484C0C330DD4509F0FA
:103A4000A6C080E095C0CE3A9DE5D907F1F058F4C4
:103A5000C63ADD4509F09BC080918603982F90956A
:103A600090FB80F919C0CF3A8DE5D807E1F1C03B52
:103A7000DD4509F08CC08091870383FB222720F964
:103A800091E0922790FB83F980C080918703886042
:103A90007CC08091860382608093860378C0809189
:103AA000860319C0809186038860F6CF80918703D2
:103AB00014C080918703826068C080918603806211
:103AC000EBCF809186038064E7CF0E94FC0B80914E
:103AD00086038068E1CF8460DFCF816056C080912B
:103AE00086038E7FD9CF80918703877F4EC08091D8
:103AF00086038D7FD1CF809186031CC08091860381
:103B0000877FCACF809187031AC0809187038D7FFA
:103B10003CC0809186038F7EBFCF809186038F7DCE
:103B2000BBCF0E94FC0B809186038F77B5CF80912D
:103B30008603877F8B7FB0CF809187038D7F8E7FB9
:103B400024C080918703982F909591708E7F892B48
:103B500090FB81F91AC00E94FC0B8091860387FBC1
:103B6000222720F991E0922790FB87F995CF81E0F9
:103B70000E9450120CC08091860384FB222720F9FA
:103B800091E0922790FB84F987CF809387038091FF
:103B90008603909187030E94C7110E94FC0B80E06E
:103BA00001C081E0DF91CF910895A0E0B0E0EBED9E
:103BB000FDE10C94E62BE82FF0E0E15DF54FD490A9
:103BC000282F26952695269530E0F901E153F54FEB
:103BD0000491877010E0082E02C0159507950A948D
:103BE000E2F701701127F901E154F54FE490F12C4F
:103BF000082E02C0F594E7940A94E2F791E0E922D6
:103C0000FF24F901E155F54FC491D0E002C0D595EC
:103C1000C7958A95E2F7C170DD270115110519F0E6
:103C200081EE0E94F608E114F10419F086EE0E947C
:103C3000F6088D2D0E948909E114F10419F086EE31
:103C40000E9443090115110519F081EE0E944309F4
:103C5000CD2B19F08CE20E948909CDB7DEB7E7E0E1
:103C60000C94022CEF92FF920F931F93CF93DF934C
:103C70008C01F62E8AE0E82EF8018491882309F45D
:103C800057C0813009F042C0E8012196FE018491BD
:103C9000813031F42196FE0184910E94890939C056
:103CA000823039F4E8012296FE0184910E94F608E0
:103CB00030C0833039F4E8012296FE0184910E94DD
:103CC000430927C0843029F5E8012296FE0124919A
:103CD00080E090E030E0205331092A30310560F473
:103CE000E89EA001E99E500D1124C901840F951F83
:103CF0002196FE012491EECF009759F0EFE9FFE005
:103D00003197F1F700C000000197F6CF0E94D51D52
:103D1000E8018E010F5F1F4F8F2D882309F4ACCF70
:103D2000EFE9FFE03197F1F700C000008150F5CFD7
:103D3000CDB7DEB7E6E00C94032C8832910530F461
:103D40008E319105A8F4049770F00FC08D32910563
:103D500061F018F48A9761F006C08C34910541F047
:103D60008D32924029F080E0089582E00E94CA10CE
:103D700081E00895A0E0B0E0E0ECFEE10C94E62BD9
:103D8000EC017B018D3A9D4549F4FB011281112321
:103D900009F472C00E947E1F10E06EC00E94B41031
:103DA000D82E0E94DA10082F0E944B1F811102C0EA
:103DB00011E062C00E94421FF70112811123C1F37A
:103DC0000D290D7909F056C0C115F5E5DF07B0F4EE
:103DD000C11523E5D20708F04FC0C11580E5D8070B
:103DE00040F4C115E0E4DE0798F5C63ED105B1F513
:103DF00043C0C115F2E5DF0788F53EC0C11529E5CE
:103E0000D20748F4C11588E5D807B0F5C431E5E517
:103E1000DE0721F531C0CE01905681159042F0F4B5
:103E2000F7018581807FC9F48D2F8F71823169F010
:103E300028F48230F9F4C1EED0E010C08431E1F012
:103E40008631C1F4C6EED2E109C0C5EED0E006C0AD
:103E5000F7018581807F09F4ABCFDD270E94D71061
:103E6000CE010E949D1EC82F882321F00E94FB10C6
:103E70001C2F02C00E945F1F812FCDB7DEB7E7E085
:103E80000C94022C0E94752488579C4E90934D03ED
:103E900080934C03089580914E0308950895809176
:103EA0004E0381110BC00E94C7100E94F1100E94A6
:103EB000421F81E080934E030E944E1F089580911F
:103EC0004E03882341F082E20E94DF0B10924E03E2
:103ED00080E00E944E1F089580914E03882369F070
:103EE0000E94752420914C0330914D03821B930B4B
:103EF0008F3F9F4710F40E945F1F089580914E03EB
:103F0000882319F00E945F1F08950E944F1F089593
:103F1000CF93DF9386319C4541F5EB010E94B410AD
:103F2000982F8A812091000130910101882379F036
:103F30009A7A81E009F480E080934F03911102C0E6
:103F400069E201C065E3C9010E94BB230AC08091F8
:103F50004F03811102C069E201C065E3C9010E94FB
:103F6000BE230E94FB1080E001C081E0DF91CF9171
:103F700008950F931F93CF93DF93C42FD22FFC018B
:103F800082818823B1F0409352030E94752490935C
:103F900051038093500380E28C0F883008F04DC0AD
:103FA000C77081E001C0880FCA95EAF70E949309A3
:103FB00044C080915203481330C0809150039091C7
:103FC00051030E948D24883C910538F510E21D0FA5
:103FD000CD17B9F080E28C0F883040F4C77081E0D3
:103FE00001C0880FCA95EAF70E949A09183010F5A7
:103FF00081E09D2F977001C0880F9A95EAF70E9483
:104000009309802F0E9489091830B8F4D77081E095
:1040100001C0880FDA95EAF70AC080E28C0F883079
:1040200060F4C77081E001C0880FCA95EAF70E946A
:104030009A0903C0802F0E948909DF91CF911F91B7
:104040000F9108950F939C01CB01243F4CE5340759
:1040500031F188F4293DFCE53F07D9F02A3D4CE5D4
:10406000340779F1283D3C45A9F506E221EE41EE01
:1040700068ED7CE52BC0263FFCE53F07E1F0A8F0AA
:10408000273F3C4539F507E225EE46EE67EF7CE534
:104090001DC007E225EE45EE69ED7CE517C006E29E
:1040A00021EE40EE64EF7CE511C007E225EE44EE20
:1040B00065EF7CE50BC006E221EE42EE66EF7CE5A3
:1040C00005C008E221E045EE6AED7CE50E94B91FDB
:1040D00080E008C0FC018281882319F0109252030D
:1040E00001C081E00F9108951092B9008CE0809397
:1040F000B8000895A0E0B0E0E0E8F0E20C94E22B14
:10410000B82EEB010E9475246C01C431D10558F022
:10411000CF3F8FEFD80759F0CE0164E170E00E94E5
:10412000C12B7B0107C0EE24E394F12C03C025E0F2
:10413000E22EF12C84E8A82E94EA992E1092BC006D
:104140009092BC000E9475248C018091BC0087FD78
:1041500007C0C8010E948D24E816F906B0F729C0EF
:104160008091B900887F883041F08091B900887FC4
:10417000803119F00FEF1FEF1EC0B092BB00A0926C
:10418000BC000E9475248C018091BC0087FD07C093
:10419000C8010E948D24E816F906B0F70AC0809184
:1041A000B900887F883111F0803421F700E010E0F9
:1041B0000EC00EEF1FEFCF3F8FEFD80709F4BECF31
:1041C000C6010E948D24C817D90708F0B7CFC801CF
:1041D000CDB7DEB7EBE00C94FE2B0F931F93CF937C
:1041E000DF93EB018093BB0084E88093BC000E94C6
:1041F00075248C018091BC0087FD0DC0CF3F8FEFEF
:10420000D807C1F3C8010E948D24C817D90790F7B9
:104210008EEF9FEF0CC02091B900287F81E090E0E5
:10422000283211F480E090E0919581959109DF9119
:10423000CF911F910F910895A0E0B0E0E2E2F1E28A
:104240000C94E52B6B018A017901B9010E947A2057
:10425000E6010C0D1D1DC017D10741F424E9209380
:10426000BC00CDB7DEB7E8E00C94012C97FDF6CF8B
:10427000B70189910E94ED20EECFA0E0B0E0E3E429
:10428000F1E20C94E52BC62F6A017901B8010E9476
:104290007A2097FD11C0B8018C2F0E94ED20E60115
:1042A000EC0CFD1CCE15DF0539F097FD05C0B801FB
:1042B00089910E94ED20F6CF24E92093BC00CDB770
:1042C000DEB7E8E00C94012C84E98093BC000895EB
:1042D0008EE14A9B02C08150E1F74A9BFECF0895D0
:1042E0005A9880E28A95F1F75A9A0895FC012AE0DB
:1042F0002A95F1F728E090E080E031E040E14A952E
:10430000F1F7880F4A9B02C08160932700C000002C
:1043100040E14A95F1F7215089F720E12A95F1F71C
:1043200029B100C0000030E13A95F1F722FB2227C5
:1043300020F992272081920F90830895A1E0B0E0A8
:10434000E4EAF1E20C94E72B19828C017C01E60E81
:10435000F11C0E151F0551F00E946821CE01019637
:104360000E947621F80181938F01F3CF81E099813A
:10437000911180E02196E6E00C94032C529A5A9A0F
:10438000089552985A9AEA9AE9E6F0E080818F7C83
:1043900080830895615091E001C0990F6A95EAF712
:1043A00020E031E0992361F0492F482319F05A9A0F
:1043B000232701C05A9840E24A95F1F79695F2CF2B
:1043C000222311F05A9A01C05A9880E28A95F1F797
:1043D0005A980895FF920F931F93CF93DF93EC01A8
:1043E0008C01060F111DC017D10741F0F9900E94F2
:1043F000702168E08F2D0E94CA21F5CFCDB7DEB7BE
:10440000E5E00C94042C1F920F920FB60F9211242A
:104410000F931F932F933F934F935F936F937F93CC
:104420008F939F93AF93BF93EF93FF93CF93DF93BC
:104430001F92CDB7DEB719820E946821CE01019686
:104440000E947621082F069506950695902F969541
:104450009570202F2570920F292F23709695969591
:10446000920F877089135FC0898181115CC004300D
:1044700008F059C080E18A95F1F75A9A529A82E081
:104480008A95F1F700C05A9888E0089F80011124AE
:10449000D801AD5FBE4F1696ED91FC9117973097FE
:1044A000A9F0609130027091310214962D913C91E7
:1044B0001597260F371F11968D919C911297680FB3
:1044C000791F13964C9113978C910995F801ED5F24
:1044D000FE4F6381662351F080913002909131024A
:1044E00024813581820F931F0E94EA210E9470214E
:1044F00080E18A95F1F75A9852985A9A80E18A9504
:10450000F1F7F801ED5FFE4F6081662351F0809175
:1045100030029091310221813281820F931F0E94DB
:104520009E210E9468210F90DF91CF91FF91EF9122
:10453000BF91AF919F918F917F916F915F914F91BB
:104540003F912F911F910F910F900FBE0F901F90D1
:1045500018950F931F93CF93DF93843091050CF040
:104560006DC0EC01F894529A5A9885E08A95F1F75B
:1045700000009C2F969595702C2F2570920F892FF7
:1045800083709695969523E0CC0FDD1F2A95E1F771
:10459000980F8E01092B0E94702184E08A95F1F713
:1045A00000C068E0802F0E94CA2180E18A95F1F75F
:1045B00052985A9A4A9902C000C0FCCF87E090E016
:1045C0004A9B08C0019721F4529A5A9A789436C0AF
:1045D00000C0F6CFFE01ED5FFE4F6381662381F0E0
:1045E000809130029091310224813581820F931F96
:1045F0000E949E21811104C0529A5A9A78941FC039
:104600000E94682180E28A95F1F75A98529A80E1D7
:104610008A95F1F7CD5FDE4F6881662351F0809176
:1046200030029091310229813A81820F931F0E94BA
:10463000EA210E947021789481E001C080E0DF913E
:10464000CF911F910F91089590933B0280933A026E
:104650000895909359038093580308950E94341746
:10466000811103C0809153030895E0915803F091A4
:104670005903309729F00190F081E02D09950895B4
:1046800080E00895E0915803F0915903309721F0AC
:104690000280F381E02D0995089520915603309111
:1046A00057032817390771F09093570380935603E7
:1046B000E0915803F0915903309721F00680F7817B
:1046C000E02D099508952091540330915503281742
:1046D000390771F09093550380935403E091580388
:1046E000F0915903309721F00084F185E02D099570
:1046F0000895FC01329697E080E0915029F02191D5
:104700002223D9F38F5FF9CF0895662349F0FC0186
:10471000329608962191621729F0E817F907D1F728
:1047200080E0089581E008959C01FC0132969FEF9E
:1047300080E04191461789F09F3F19F4411101C073
:10474000982F8F5F8630A9F79F3F39F0F901E90F65
:10475000F11D97FDFA956283089508959C012A5FE3
:104760003F4FFC014281461301C01282019682171D
:104770009307B9F708950E94942308950E94AE23E9
:104780000895029626E0FC0111922A95E9F7089512
:1047900008950E94C823089583E080935A030E94DD
:1047A000C9230895811102C081E001C082E0809395
:1047B0005A030E94C92308950E94D223089581E0DC
:1047C00080935A030E94C92308950E94DF2308950D
:1047D00008950E94E82308950E94E92308950E9405
:1047E000E82308950E94E82308950E94E82308958D
:1047F000CF930E94F2230E94BC160E94EF23C0E0D8
:104800008C2F0E948715811104C0CF5FCA30C1F779
:1048100001C081E0CF91089585B7806885BF85B7D5
:10482000806885BF08951F920F920FB60F921124D2
:104830008F939F93AF93BF9380915B03811113C0BC
:104840008091A6059091A705A091A805B091A90512
:104850004196A11DB11D8093A6059093A705A09335
:10486000A805B093A905BF91AF919F918F910F902B
:104870000FBE0F901F9018958091AE05843031F1D6
:104880000E946E0810925B0320E488E190E00FB66E
:10489000F894A895809360000FBE2093600083B7C2
:1048A000817F846083BF83B7816083BF789488955C
:1048B00083B78E7F83BF0FB6F894A8958091600070
:1048C000886180936000109260000FBE08950E947E
:1048D000FC0B0E947508089582E084BD93E095BDAD
:1048E0009AEF97BD80936E0008952FB7F89480914A
:1048F000A6059091A705A091A805B091A9052FBF85
:1049000008952FB7F8946091A6057091A70580913E
:10491000A8059091A9052FBF08959C014FB7F89461
:104920008091A6059091A705A091A805B091A90531
:104930004FBF821B930B0895CF92DF92EF92FF92AD
:104940002FB7F894C090A605D090A705E090A805D1
:10495000F090A9052FBFA7019601261B370B480B26
:10496000590BCA01B901FF90EF90DF90CF900895E5
:1049700078941F920F920FB60F9211248F939F93EA
:10498000AF93BF938091A6059091A705A091A8052C
:10499000B091A9050196A11DB11D8093A605909324
:1049A000A705A093A805B093A905BF91AF919F91CA
:1049B0008F910F900FBE0F901F90189587E797E784
:1049C00090930108809300089AE088E10FB6F8946C
:1049D000A895809360000FBE90936000FFCF9AE08F
:1049E00088E10FB6F894A895809360000FBE90936D
:1049F0006000FFCF8091670308950895CF93DF9300
:104A000021E02093E9002FEF3091E800215035FD9F
:104A100006C035ED3A95F1F700002111F5CF209150
:104A2000E80025FF14C0EC0140E050E068E070E0D1
:104A30000E9415278091E8008E778093E80088E037
:104A4000FE01AFE5B3E001900D928A95E1F7DF91A9
:104A5000CF91089580935C0370935E0360935D0330
:104A60008091AE05843001F582E08093E9008FEFFC
:104A70009091E800815095FD06C095ED9A95F1F76B
:104A800000008111F5CF8091E80085FF0DC040E066
:104A900050E063E070E08CE593E00E941527809180
:104AA000E8008E778093E8000895BC0184E00E94BE
:104AB0002A250895BC0183E00E942A2508950895BF
:104AC0008091AD05811109C00E94A0280E94FD2897
:104AD0008091E20084608093E20008951092AD0519
:104AE00008950E94E52308956091AA0581E061116F
:104AF00001C080E00E94CC2308959091AE0581E032
:104B0000943009F080E06091AA050E94D2230895B4
:104B100042E061EC81E00E94192842E261EC82E00F
:104B20000E9419289091AE0581E0943009F080E050
:104B30006091AA050E94DC2308958091B00583301E
:104B400009F461C030F4813071F0823009F49BC007
:104B500008958A3009F487C08B3009F46CC089301D
:104B600009F0A9C020C08091AF05813A09F0A3C027
:104B70008091E800877F8093E8008091B305909151
:104B8000B405892B21F468E08FE593E003C060E071
:104B900080E090E070E00E945A278091E8008B77D7
:104BA0008093E80008958091AF05813209F083C0B9
:104BB0008091B3059091B405029708F07CC0809174
:104BC000E800877F8093E8008091E80082FD05C0BF
:104BD0008091AE058111F8CF6EC02091F3008091D5
:104BE000F20090E0922B029731F48091F100813035
:104BF00011F0863021F48091F10080936703809159
:104C0000E8008B7754C08091AF05813A09F053C01A
:104C10008091B3059091B405892B09F04CC0809127
:104C2000E800877F8093E8008091E80080FFFCCF58
:104C300080912E0137C08091AF058132E1F58091DE
:104C4000B3059091B405892BB1F58091E800877F79
:104C50008093E8000E944E288091B10580932E0138
:104C60000E94FC0B08958091AF05813221F580915F
:104C7000E800877F8093E8000E944E288091B2056B
:104C80008093680308958091AF05813AA1F48091E3
:104C9000E800877F8093E8008091E80080FFFCCFE8
:104CA000809168038093F1008091E8008E77809373
:104CB000E8000E944E28089584B7877F84BF0FB60E
:104CC000F894A895809160008861809360001092AC
:104CD00060000FBE90E080E80FB6F894809361000A
:104CE000909361000FBE0E94DF2308950E94A028C8
:104CF0000E94FD28E2EEF0E0808184608083789459
:104D00000E94882B089582E291E00E942923089551
:104D10008091AE058530A9F48091AE05853079F497
:104D20000E943C248091AC058823B1F30E94F823B3
:104D3000882391F30E94FF260E94FC0BEDCF0E9476
:104D40006724089508950E94A6260895292F3327E1
:104D500023303105C9F060F42130310581F0223073
:104D6000310509F044C08BE390E025E03BE043C00F
:104D700021323105E1F02232310549F138C082E1BA
:104D800090E020E43BE037C099278130910549F05D
:104D900028F0029761F5EFEDFAE005C0E1E0FBE0F5
:104DA00002C0EFEEFAE0849190E09F0124C061150B
:104DB000710541F061307105D1F489E090E020E3A4
:104DC0003BE019C089E090E027E13BE014C06115A9
:104DD000710541F06130710551F482E390E022E504
:104DE0003BE009C080E490E024E83BE004C080E0C0
:104DF00090E020E030E0FA0131832083089580E1E3
:104E000089BD82E189BD09B400FEFDCF8091D80043
:104E10008F7D8093D8008091E00082608093E000D5
:104E20008091E00081FDFCCF0895A0E0B0E0EBE1CF
:104E3000F7E20C94E52BEC018B017A010E946D28BE
:104E4000811133C0E114F10439F0F70180819181BF
:104E5000081B190BC80FD91FC12CD12C0115110526
:104E600019F18091E80085FD16C08091E8008E77E9
:104E70008093E800E114F10449F0F7018081918109
:104E8000C80ED91ED182C08285E00FC00E946D2855
:104E9000882321F30AC089918093F1000150110900
:104EA000FFEFCF1ADF0ADACF80E0CDB7DEB7E8E058
:104EB0000C94012C2091B5053091B60526173707C3
:104EC00048F06115710539F42091E8002E772093A0
:104ED000E80001C0B901FC0120E06115710579F11C
:104EE0008091AE058823F1F18530F1F18091E800E1
:104EF00083FD3CC08091E80082FD2EC08091E800D7
:104F000080FFEBCF2091F3008091F20090E0922B94
:104F10006115710551F08830910538F42191209385
:104F2000F100615071090196F3CF21E0089709F073
:104F300020E08091E8008E778093E800CECF2111A9
:104F4000CFCF0AC08091AE05882361F0853061F033
:104F50008091E80083FD0AC08091E80082FFF2CFD3
:104F600080E0089582E0089583E0089581E0089547
:104F70002091B5053091B6052617370748F0611521
:104F8000710539F42091E8002E772093E80001C0E4
:104F9000B901FC0120E06115710591F18091AE0528
:104FA000882309F440C0853009F43FC08091E800AF
:104FB00083FD3DC08091E80082FD2FC08091E80014
:104FC00080FFE9CF2091F3008091F20090E0922BD6
:104FD0006115710559F08830910540F424912093B2
:104FE000F1003196615071090196F2CF21E00897E6
:104FF00009F020E08091E8008E778093E800CBCF25
:105000002111CCCF0AC08091AE05882361F0853094
:1050100061F08091E80083FD0AC08091E80082FF82
:10502000F2CF80E0089582E0089583E0089581E062
:105030000895982F973068F59093E900981739F004
:105040007091EC002091ED005091F00003C0242FEE
:10505000762F50E021FD02C09F5FECCF3091EB0036
:105060003E7F3093EB003091ED003D7F3093ED00BB
:105070003091EB0031603093EB007093EC002093A3
:10508000ED005093F0002091EE0027FDE5CF80E089
:1050900008958F708093E90081E008958091AF05B5
:1050A00087FF11C08091E80082FD05C08091AE05A8
:1050B0008111F8CF11C08091E8008B770BC08091EF
:1050C000AE05882349F08091E80080FFF8CF8091F9
:1050D000E8008E778093E80008952091E4003091F5
:1050E000E50095E64091EC00842F817040FF23C0DD
:1050F0008091E80080FD1DC08091AE05882399F065
:10510000853099F08091EB0085FD11C04091E4005D
:105110005091E5002417350729F3915011F09A01B9
:10512000E1CF84E0089582E0089583E0089581E06E
:10513000089580E008954091E80042FFDDCF089592
:105140000E940F290E941729E0EEF0E08081816023
:105150008083E8EDF0E080818F77808319BCA7ED34
:10516000B0E08C918E7F8C9380818F7E80831092B3
:10517000AD0508950F931F93CF93DF930E940F29DE
:105180000E941729C8EDD0E088818F7788838881B5
:105190008068888388818F7D888319BC1092AE05D2
:1051A0001092AA051092AC051092AB0500EE10E02B
:1051B000F80180818B7F808388818160888342E0D1
:1051C00060E080E00E941928E1EEF0E080818E7FAF
:1051D0008083E2EEF0E0808181608083808188605E
:1051E0008083F80180818E7F8083888180618883BD
:1051F000DF91CF911F910F910895E8EDF0E080814C
:105200008F7E8083E7EDF0E080818160808384E0A1
:1052100082BF81E08093AD050E94BA280895E8ED31
:10522000F0E080818E7F80831092E20008951092DA
:10523000DA001092E10008951F920F920FB60F92BC
:1052400011242F933F934F935F936F937F938F938B
:105250009F93AF93BF93EF93FF938091E10082FF01
:105260000BC08091E20082FF07C08091E1008B7F3C
:105270008093E1000E94872B8091DA0080FF1FC09D
:105280008091D80080FF1BC08091DA008E7F8093D0
:10529000DA008091D90080FF0DC080E189BD82E1F4
:1052A00089BD09B400FEFDCF81E08093AE050E9468
:1052B000602505C019BC1092AE050E946E25809134
:1052C000E10080FF19C08091E20080FF15C080914D
:1052D000E2008E7F8093E2008091E2008061809303
:1052E000E2008091D80080628093D80019BC85E0EC
:1052F0008093AE050E9474258091E10084FF30C048
:105300008091E20084FF2CC080E189BD82E189BDEB
:1053100009B400FEFDCF8091D8008F7D8093D80026
:105320008091E1008F7E8093E1008091E2008F7E8A
:105330008093E2008091E20081608093E20080919E
:10534000AA05882311F084E007C08091E30087FD5F
:1053500002C081E001C083E08093AE050E947D25FC
:105360008091E10083FF29C08091E20083FF25C086
:105370008091E100877F8093E10082E08093AE0519
:105380001092AA058091E1008E7F8093E1008091C8
:10539000E2008E7F8093E2008091E2008061809342
:1053A000E20042E060E080E00E9419288091F00075
:1053B00088608093F0000E947125FF91EF91BF916A
:1053C000AF919F918F917F916F915F914F913F919D
:1053D0002F910F900FBE0F901F9018951F920F9254
:1053E0000FB60F9211242F933F934F935F936F93B8
:1053F0007F938F939F93AF93BF93CF93DF93EF935D
:10540000FF93C091E900CF708091EC00D82FD1704C
:1054100080FDD0E81092E9008091F000877F8093B2
:10542000F00078940E94322A1092E9008091F000F6
:1054300088608093F000CD2BCF70C093E900FF917E
:10544000EF91DF91CF91BF91AF919F918F917F911C
:105450006F915F914F913F912F910F900FBE0F90E1
:105460001F901895AAE2B0E0E8E3FAE20C94EA2B68
:10547000EFEAF5E08091F100819325E0E73BF20748
:10548000C9F70E949D258091E80083FF2EC180917D
:10549000AF059091B005492F50E04A30510508F012
:1054A00024C1FA01EE59FF4F0C94D52B803821F01E
:1054B000823809F01AC108C08091AB059091AC0503
:1054C000992389F082600FC08091B3058F70873077
:1054D00008F00BC18093E9008091EB0085FB8827E1
:1054E00080F91092E9009091E800977F9093E8008E
:1054F0008093F1001092F100D1C0282F2D7F09F088
:10550000F4C0882319F0823061F0EFC08091B105BA
:10551000813009F0EAC0933009F080E08093AC0557
:105520002EC08091B10581112AC08091B3058F7082
:105530002FEF280F263008F0D8C08093E900209183
:10554000EB0020FF1CC0933021F48091EB008062BF
:1055500014C09091EB0090619093EB0021E030E05B
:10556000A90102C0440F551F8A95E2F74093EA0053
:105570001092EA008091EB0088608093EB0010921B
:10558000E9008091E800877F8093E8000E944E2820
:10559000ACC08111AAC01091B1051F778091E300C2
:1055A0008078812B8093E3008091E800877F80934F
:1055B000E8000E944E288091E80080FFFCCF809197
:1055C000E30080688093E300111102C082E001C013
:1055D00083E08093AE0589C08058823008F085C092
:1055E0008091B1059091B2058C3D53E0950779F516
:1055F00083E08A838AE289834FB7F894DE011396A9
:1056000020E03EE051E2E32FF0E050935700E491B8
:1056100020FF03C0E295EF703F5FEF708E2F90E0A8
:10562000EA3010F0C79601C0C0968D939D932F5F0E
:10563000243149F74FBF8091E800877F8093E800CD
:105640006AE270E0CE0101960E945A2716C060916E
:10565000B3057091B405AE014F5F5F4F0E94A32662
:10566000BC01892B09F441C09091E800977F909389
:10567000E80089819A810E94B8278091E8008B77A1
:105680008093E80032C0803881F58091E800877F00
:105690008093E8008091AA058093F1008091E80052
:1056A0008E7772CF811121C08091B1059091B205A2
:1056B00099270297D4F48091E800877F8093E800CF
:1056C0008091B1058093AA050E944E288091AA0579
:1056D000811106C08091E30087FD02C081E001C016
:1056E00084E08093AE050E9488258091E80083FFC6
:1056F0000AC08091E800877F8093E8008091EB00EA
:1057000080628093EB00AA96E3E00C94062C089547
:10571000CF938091AE058823A1F0C091E900CF70AE
:105720009091EC00892F817090FD80E8C82B109239
:10573000E9008091E80083FD0E94322ACF70C09377
:10574000E900CF9108950E94A0281092AE05089517
:10575000E8EDF0E08081806180838AE18A95F1F74D
:1057600000C08091D90081700895991B79E004C030
:10577000991F961708F0961B881F7A95C9F7809590
:105780000895AA1BBB1B51E107C0AA1FBB1FA61788
:10579000B70710F0A61BB70B881F991F5A95A9F7DA
:1057A00080959095BC01CD010895EE0FFF1F0590E7
:1057B000F491E02D09942F923F924F925F926F9255
:1057C0007F928F929F92AF92BF92CF92DF92EF9291
:1057D000FF920F931F93CF93DF93CDB7DEB7CA1B12
:1057E000DB0B0FB6F894DEBF0FBECDBF09942A883D
:1057F000398848885F846E847D848C849B84AA84E5
:10580000B984C884DF80EE80FD800C811B81AA8171
:10581000B981CE0FD11D0FB6F894DEBF0FBECDBF3C
:10582000ED010895FB01DC0102C005900D9241508D
:105830005040D8F70895FB01DC0104C08D91019020
:10584000801921F441505040C8F7881B990B0895E6
:10585000FB01DC0102C001900D9241505040D8F78D
:105860000895FB01DC0101900D920020E1F70895FD
:10587000AEE0B0E0EEE3FCE20C94E92B0D891E896A
:105880008F89988D26E02C831A83098397FF02C0A5
:1058900080E090E801979E838D83AE01455E5F4F67
:1058A000698D7A8DCE0101960E94682C4D815E81B2
:1058B00057FD0AC02F813885421753070CF49A010F
:1058C000F801E20FF31F10822E96E4E00C94052CF1
:1058D000ABE0B0E0EEE6FCE20C94DB2B6C017B016C
:1058E0008A01FC0117821682838181FFCCC1CE011F
:1058F00001963C01F6019381F70193FD859193FF99
:1059000081917F01882309F4BAC1853239F493FD6E
:10591000859193FF81917F01853229F4B60190E052
:105920000E945F2EE7CF912C212C312CFFE1F31543
:10593000D8F08B3279F038F4803279F08332A1F4E8
:10594000232D20611DC08D3261F0803369F4232D39
:10595000216016C0832D8260382EE32DE4603E2E38
:105960002AC0F32DF8601DC037FC2DC020ED280F94
:105970002A3040F08E32B9F436FC81C1232D2064E8
:10598000322E19C036FE06C08AE0989E200D1124E2
:10599000922E11C0EAE02E9E200D1124222EF32D0E
:1059A000F0623F2E08C08C3621F4832D8068382E9B
:1059B00002C0883641F4F70193FD859193FF8191F0
:1059C0007F018111B3CF982F9F7D9554933028F498
:1059D0000C5F1F4F9FE399830DC0833631F08337EF
:1059E00071F0833509F059C021C0F80180818983A5
:1059F0000E5F1F4F88248394912C530113C02801FC
:105A0000F2E04F0E511CF801A080B18036FE03C0B9
:105A1000692D70E002C06FEF7FEFC5010E94542E28
:105A20004C018201F32DFF773F2E16C0280122E0A2
:105A3000420E511CF801A080B18036FE03C0692DD2
:105A400070E002C06FEF7FEFC5010E94492E4C014C
:105A5000F32DF0683F2E820133FC1BC0822D90E0B5
:105A600088169906B0F4B60180E290E00E945F2E9D
:105A70002A94F4CFF50137FC859137FE81915F01BF
:105A8000B60190E00E945F2E21102A9421E0821A34
:105A900091088114910471F7E8C0843611F08936B9
:105AA00041F5F80137FE07C06081718182819381E1
:105AB0000C5F1F4F08C060817181072E000C880B9E
:105AC000990B0E5F1F4FF32DFF763F2E97FF09C0F6
:105AD00090958095709561957F4F8F4F9F4FF0689F
