:100000000C9497050C94B4050C94B4050C947A21C7
:100010000C94B4050C94B4050C94B4050C94B4057C
:100020000C94B4050C94B4050C9493280C94652995
:100030000C948A230C94B4050C94B4050C94B40568
:100040000C94B4050C94B4050C94B4050C94B4054C
:100050000C94B4050C942F240C94B4050C94B405A2
:100060000C94B4050C94B4050C94B4050C94B4052C
:100070000C94B4050C94B4050C94B4050C94B4051C
:100080000C94B4050C94B4050C94B4050C94B4050C
:100090000C94B4050C94B4050C94B4050C94B405FC
:1000A0000C94B4050C94B4050C94B4055109510991
:1000B0007D097D09E509ED0AED0AED0A030A790AD1
:1000C0008A0A8A0ACD29F429EC2AF429EC2A402A42
:1000D000632AEC2ABA2AC92A606060003A002E001E
:1000E0003B002C0021002F005F002D0000000000CD
:1000F0000000000000000000000014001A000900C9
:1001000013000500000004611564166817620A00F8
:1001100000001D001B000600070019000000000081
:1001200029462C442B450000000000000000000080
:1001300000000000000034001C0018000F000D003B
:10014000000012710C740878117210000000380061
:10015000370036000B000E00000000004C432A411F
:100160002842000000000000000000000000000025
:1001700000004B00AC00AE00AB00A9000000E000A6
:10018000E200E300E100AA000000000000004900D6
:10019000000000000000000029002C002B000000DF
:1001A000000000000000000000000000000000004F
:1001B00000004B004E000000000000004F00520005
:1001C0005100500000000000A9004D004A0000004E
:1001D000000000004C002A41280000000000000040
:1001E00000000000000000000000000000002F00E0
:1001F000300037020000000000002602270239000C
:100200000000000000002F02300236020000000053
:1002100029002C002B00000000000000000000005E
:1002200000000000000000000000000000000000CE
:100230000000E400E600E700E50000000000000028
:100240000000000000000000000000004C002A0038
:100250002842000000000000000000000000000034
:100260000000F900FB00ED00FC00A9000000FA000E
:10027000EF00EE00F000AA0000000000BC00AE009D
:10028000BB00A8000000000029002C002B0000008B
:10029000000000000000000000000000000000005E
:1002A00000000000000000000000E400E600E7009D
:1002B000E500000000000000000000000000000059
:1002C000000000004C432A0028000000000000004D
:1002D000000000000000000000000000000000001E
:1002E000000000000000E000E200E300E100000088
:1002F00000000000000000000000000000000000FE
:1003000029002C442B000000000000000000000029
:100310000000000000003500260025002400000039
:1003200000002E00230022002100270000003100E1
:1003300020001F001E002700000000004C002A00C3
:100340002D00000000000000000000000000000080
:100350000000000000000000000000000000E000BD
:10036000E200E300E10000000000000000000000E7
:100370000000000000000000000000002845000010
:100380000000000000000000000000000000350038
:10039000640025022402000000002E022302220233
:1003A000210200000000310232001F021E02000084
:1003B00000000000000033022D00000000000000DB
:1003C000000000000000000000000000000000002D
:1003D000000000000000E000E200E300E100000097
:1003E000000000000000000000000000000000000D
:1003F000294600000000000000000000000000008E
:10040000000000000000450042004100400046009E
:10041000000044003F003E003D0047000000430054
:100420003C003B003A0048000000000000000000D3
:100430000000000000AE00AF00DA0281FFD9F1DB5E
:1004400020A4A62EAF00A0C000A1C800AED580A8F1
:100450001FD300408D1420000000000000003E5B10
:100460004F5B3E003E6B4F6B3E001C3E7C3E1C00D3
:10047000183C7E3C18001C577D571C001C5E7F5E9C
:100480001C0000183C180000FFE7C3E7FF0000183D
:1004900024180000FFE7DBE7FF0030483A060E00B3
:1004A000262979292600407F05050700407F05257C
:1004B0003F005A3CE73C5A007F3E1C1C0800081CC9
:1004C0001C3E7F0014227F2214005F5F005F5F00EC
:1004D00006097F017F00006689956A0060606060A0
:1004E000600094A2FFA2940008047E04080010207B
:1004F0007E20100008082A1C0800081C2A08080092
:100500001E10101010000C1E0C1E0C0030383E384F
:100510003000060E3E0E0600000000000000000045
:100520005F000000000700070000147F147F140024
:10053000242A7F2A120023130864620036495620B9
:100540005000000807030000001C22410000004189
:10055000221C00002A1C7F1C2A0008083E080800F4
:100560000080703000000808080808000000606083
:1005700000002010080402003E5149453E000042A0
:100580007F4000007249494946002141494D3300EE
:100590001814127F10002745454539003C4A494947
:1005A00031004121110907003649494936004649C1
:1005B00049291E0000001400000000403400000023
:1005C00000081422410014141414140000412214D1
:1005D00008000201590906003E415D594E007C1297
:1005E00011127C007F49494936003E4141412200B9
:1005F0007F4141413E007F49494941007F09090946
:1006000001003E41415173007F0808087F0000410E
:100610007F4100002040413F01007F08142241003B
:100620007F40404040007F021C027F007F04081092
:100630007F003E4141413E007F09090906003E41DD
:1006400051215E007F091929460026494949320097
:1006500003017F0103003F4040403F001F20402036
:100660001F003F4038403F00631408146300030438
:10067000780403006159494D4300007F4141410026
:10068000020408102000004141417F0004020102E1
:100690000400404040404000000307080000205490
:1006A000547840007F2844443800384444442800AB
:1006B000384444287F0038545454180000087E09F8
:1006C00002001824241C78007F08040478000044E9
:1006D0007D4000002040403D00007F102844000085
:1006E00000417F4000007C04780478007C0804040A
:1006F00078003844444438007C1824241800182416
:1007000024187C007C080404080048545454240035
:1007100004043F4424003C4040207C001C20402036
:100720001C003C4030403C004428102844004C90C1
:1007300090907C004464544C440000083641000012
:1007400000007700000000413608000002010204AA
:1007500002003C2623263C00000000000080808030
:1007600080000000000080E070180C1830E080006D
:100770000010F8901030783010B8FC3810000000ED
:10078000000000F8FCF8000000000000000000007D
:100790000000001C9C1C00000000F8FCF800000099
:1007A0000000001CFCF8C000000000000080E0F821
:1007B0007C1C000000F0FCFCFC1C1C1C1C1C1C1CF9
:1007C0001C000000000000C0F0F8381C1C1C1C1CA1
:1007D0001C3CF8F0E000E0F0F0F0E0ECEEF7F37035
:1007E00020007C7C7C7E007E7E7E7F7F7F00008080
:1007F000C0E07E5B4F5BFEC00000C000DCD7DEDEE9
:10080000DED7DC00C0000000000000000000000097
:10081000000000000000000000000000000FBCE02D
:10082000818181838382870C183060C000001FFEA5
:1008300090B9FFBB91983C1811133F1100000000C4
:10084000000000FFFFFF00000000000000000000AB
:10085000000000FFFFFF00000000FFFFFF0000009E
:100860000000000000030F7FF8E080F0FC3F0F0164
:1008700000000000003F3F3F1C1C1C1C1C3C78F883
:10088000F0E08000000000C3E7FF7E3C387878701D
:1008900070F8FFDF87000F1F3F7F7F7F7F7F3F1E46
:1008A0000C001F1F1F3F003F3F3F7F7F7F00307BBB
:1008B0007F7830202030787F3B0003000F7F0F0FC0
:1008C0000F7F0F0003000000000000000000000088
:1008D0000000000000000000183C24666341C18154
:1008E00080808080808081C14162386C4CC681816B
:1008F000808080808081C14362361C180000000027
:10090000000000FFFFFFC0C0C0C0C0C0C0C0C080AA
:100910000000007FFF7F000000007FFFFFC080001D
:100920000000E0E0C0C0C0E0F97F1F070000000049
:10093000000000000070F0E0E0C0C0C0C0E0F0F8CF
:100940007F3F0F0000000F3F7FF9E0E0C0C0C0C054
:10095000C0E0F97F3F1F0000000000000000000021
:100960000000000000000000000000000000000087
:100970000000000000000000000000000000000077
:100980000000000000000000000000000000000067
:100990000000000000000000000000000000000057
:1009A0002A2B2800000000000000000000000000CA
:1009B00000000029000000002C1E342021222434D5
:1009C0002627252E362D3738271E1F2021222324A7
:1009D00025263333362E37381F0405060708090A43
:1009E0000B0C0D0E0F101112131415161718191ADF
:1009F0001B1C1D2F3130232D350405060708090A5D
:100A00000B0C0D0E0F101112131415161718191ABE
:100A10001B1C1D2F3130354C000000000000000071
:100A200000000000000000000000000000000000C6
:100A30000000000000000000000000007E0F00D455
:100A4000FFFFFFC7000000780E034C0069006C0038
:100A5000790035003800000010036C0069006C005C
:100A6000690075006D0073000000040309040902A9
:100A70003B00020100A0FA0904000001030101008B
:100A8000092111010001224000070581030800012E
:100A900009040100010300000009211101000122E5
:100AA000320007058203200001120100020000004D
:100AB00008D8042DEB00010102000105010980A105
:100AC00001850319012AB700150126B700950175A4
:100AD000108100C0050C0901A101850419012AA09B
:100AE00002150126A002950175108100C0050109BB
:100AF00006A101050719E029E715002501950875EC
:100B00000181029501750881010507190029FF156A
:100B10000026FF00950675088100050819012905C2
:100B2000950575019102950175039101C00011248D
:100B30001FBECFEFDAE0DEBFCDBF12E0A0E0B1E034
:100B4000E8E6FDE502C005900D92AA33B107D9F79A
:100B500025E0AAE3B2E001C01D92A73BB207E1F78E
:100B60000E94B4180C94B22E0C940000809197024D
:100B7000909198028430910599F040F4009769F0C3
:100B800082309105B9F46BE471E00CC088309105B6
:100B900071F08E30910559F00DC06FE271E002C026
:100BA0006EE371E089E693E00E94A82B1AC068E525
:100BB00071E0F8CF9F938F9386E691E09F938F9398
:100BC0001F9288E18F9389E693E09F938F930E9411
:100BD000AF2B8DB79EB708960FB6F8949EBF0FBE89
:100BE0008DBF89E693E00895CF938C33910528F467
:100BF000FC01E957FE4FC08101C0C0E21F92CF93B4
:100C00009F938F93FB0180811F928F9381811F920D
:100C10008F9386E791E09F938F931F9288E18F9344
:100C200083E592E09F938F930E94AF2B8DB79EB781
:100C30000E960FB6F8949EBF0FBE8DBF80913C02FA
:100C400090913D02449779F080913C0290913D0251
:100C5000FC01E25CFD4FC083019690933D028093BE
:100C60003C02CF91089510923D0210923C02EEE3B7
:100C7000F2E080E292E0E235F90731F38193FACFB6
:100C800083E592E008958EE392E0089581E008956F
:100C900082E008950E94B60560E00E945D1A0E94FD
:100CA000400660E00E945D1A0E94430660E00E94D8
:100CB0005D1A80E008950F931F93CF93DF938C010B
:100CC000EB018A81882319F0C8010E94F4050E9473
:100CD0002B10809381030533110509F48CC040F477
:100CE0000D32110571F00433110509F476C09EC070
:100CF0000733110509F457C0E0F108331105D9F0A5
:100D000095C08A81882339F00E94EC239093700269
:100D100080936F0285C080916F02909170020E9453
:100D2000042460E0883C910518F48AEE90E012C03B
:100D300088EE90E00FC08A818111E6CF80916F022A
:100D4000909170020E940424883C910530F460E088
:100D500086EE90E00E94A91D69C080918103827295
:100D600021F060E084EE90E0F5CF8CE50E944C1D10
:100D70005DC08A81882339F00E94EC2390936E0233
:100D800080936D024DC080916D0290916E020E9421
:100D9000042460E0883C910518F482EE90E0DACFFC
:100DA00080EE90E0D7CF8A81882339F00E94EC232F
:100DB00090936C0280936B0233C080916B02909190
:100DC0006C020E94042460E0883C910518F48EEDCA
:100DD00090E0C0CF8CED90E0BDCFCA81CC2331F044
:100DE000827211F08FE11AC084E318C08FE10E9473
:100DF000BA0884E318C0CA81CC23A1F0827269F0DA
:100E000082E20E94341060E088ED90E00E94A91D0B
:100E1000809181030E943B1003C085E30E946D080E
:100E2000C0E005C085E30E94BA0801C0C1E08C2F74
:100E3000DF91CF911F910F91089581E008950E9455
:100E40005B06089508950E9422070895A5E0B0E08A
:100E5000ECE2F7E00C94612B49835A8330917602DF
:100E600089819A81311114C0662359F0222349F0F7
:100E70000E94D20C182F682F89819A810E94AE0C93
:100E800003C00E94C00C182F69817A81812F04C091
:100E90000E94D20C69817A810E94A0132596E3E01A
:100EA0000C947D2BFC01262F40815181628173813E
:100EB00084810E942607089581E00895CF93DF93EF
:100EC000EC0160E00E945207BE010E942307DF91FF
:100ED000CF9108950E94181508950E941215089543
:100EE00008950E94730B0E9470072FEF84E39CE02B
:100EF000215080409040E1F700C0000008950E941A
:100F000071070E94552408950E9471070E9466246B
:100F100008950F931F93CF93DF938C0161E00E949C
:100F20005207EC01B8010E941F07882309F447C04B
:100F3000B801CE010E94311E882309F440C0B801D7
:100F4000CE010E94991F8823D1F1B801CE010E94E1
:100F5000CE1B8823A1F1B801CE010E94FF1E882379
:100F600071F1F8018281882331F1CB358DE5D80705
:100F7000E9F050F4C115FCE5DF0779F0CF3DDC4521
:100F8000D1F40E94C4110CC0CD35EDE5DE0759F057
:100F900080F0C83ADD4521F00EC00E947F070FC0E7
:100FA0000E9484070CC00E94061105C00E94101107
:100FB00002C00E941411C8010E941D0701C080E0F8
:100FC000DF91CF911F910F9108950E9463230E949A
:100FD00004080E94771B08950E9408080E946C2351
:100FE000089508950E94F107089581E008950E94F0
:100FF000F50708950895CF93C82F0E94F2078C2F0C
:101000000E94F707CF91089580E00E94FB070895A2
:101010000E94A5220E94FB070895CF930E94A5225B
:10102000C82F80917102C81779F0C09371020E9495
:10103000F82360937202709373028093740290930A
:1010400075028C2F0E94FB07CF910895ABE0B0E0B2
:10105000ECE2F8E00C94622B4F83588769877A871B
:101060008B8761110E944E109E012F5F3F4F86E0DB
:10107000F90111928A95E9F785E0FE013796D901C9
:1010800001900D928A95E1F789819A814C815D8169
:10109000452B31F09F3F31F491E08F3F19F403C0AD
:1010A00091E001C090E090FF09C049815A816B81B5
:1010B0007C818D819E810E94770F05C0C9010E94AD
:1010C0005C078111F2CF2B96E2E00C947E2BFC01A1
:1010D000808191810E94040D0895CF93882309F4A3
:1010E00047C0C82F8CEF8C0F813AD0F46C2F8091C1
:1010F0000001909101010E94FC22882349F06C2F8D
:1011000080910001909101010E9435230E9472108C
:101110006C2F80910001909101010E9432230CC03C
:1011200080E28C0F883058F4C77081E001C0880FCE
:10113000CA95EAF70E942E100E94721019C0EBE5C2
:10114000EC0FE33040F4F0E0EF50FE4F808190E090
:101150000E94C4220DC0C85AC73150F4EC2FF0E0F1
:10116000EE0FFF1FED53FE4F808191810E94DA2226
:10117000CF910895882359F1682F8CEF860F813A1B
:1011800038F480910001909101010E9435230CC038
:1011900080E2860F883058F4677081E001C0880FC4
:1011A0006A95EAF70E9434100E94721008958BE548
:1011B000860F833028F480E090E00E94C4220895D6
:1011C000685A673120F480E090E00E94DA220895A6
:1011D0001F93CF93DF93182FEB010E946D08209788
:1011E00041F08FE99FE00197F1F700C000002197DF
:1011F000F6CF812F0E94BA08DF91CF911F910895F9
:10120000893319F060E070E002C060E570E00E9490
:10121000E8080895882321F00E942E100E94721081
:101220000895882321F00E9434100E9472100895BE
:10123000A0E0B0E0EEE1F9E00C945C2B7C01162F0D
:10124000C72FFC01D281058102950F700E942410E6
:101250008823B9F0DD23A9F08C2F807F803421F022
:1012600080E2810F883068F08091870382FF09C097
:1012700082E00E94D4100E94241091E0D82ED9263A
:1012800001C0D12CCC2EC2948FE0C8228C2D90E0CE
:101290008C30910508F0A1C1FC01EA5AFF4F0C9473
:1012A0004C2B8C2F807FCF70882311F0C295C07F8C
:1012B000DD2399F0CC2309F47CC180E2810F8830D2
:1012C00010F0111104C08C2F0E942E1003C08C2F1F
:1012D0000E9441100E9472106CC1812F0E94BA08B6
:1012E000CC2309F47AC180E2810F883038F11123D0
:1012F00029F18C2F0E94471024C08C2F807FCF7043
:10130000803211F0C295C07F112319F01130A1F184
:101310003DC08091870382FD17C0DD2349F0CC23B7
:1013200029F08C2F0E942E100E94721080E042C182
:1013300080E00E94BA08CC2309F44FC18C2F0E9490
:1013400034100E94721049C1DD2371F0002341F076
:10135000013031F40E9451108C2B0E945B103DC172
:101360000E9451108C2B1DC0002319F0013009F48C
:1013700034C10E94681025C0DD2321F0063008F03A
:101380002CC10EC0053008F028C11BC0DD2361F060
:10139000002331F0F701858180FF0BC18F708583B9
:1013A0008C2F0E940A0919C1002359F0193309F042
:1013B00011C1FFEF27EE83E0F15020408040E1F7BC
:1013C00007C18C2F0E94110908C18C2F8695869524
:1013D000837019F0813061F000C1DD2321F0812F8D
:1013E0009C2F937002C080E090E00E94C422FDC058
:1013F000DD2321F0812F9C2F937002C080E090E0CC
:101400000E94DA22F2C08C2F8370B1F5D111E9C0AD
:10141000412F429546954770440F440F812F8F709E
:1014200090E09C01042E02C0220F331F0A94E2F7C1
:1014300014FF0AC08FE090E002C0880F991F4A9500
:10144000E2F78095909502C080E090E0C695C69541
:10145000C370822B932BC23049F058F4C13019F07D
:101460000E94DF0BBEC00E94D60BBBC00E94E80BDF
:10147000B8C00E94D30BB5C0DD2319F08C2F81704A
:1014800001C08695882309F4ACC0412F429546954A
:101490004770440F440F812F8F7090E09C01042E01
:1014A00002C0220F331F0A94E2F714FF0AC08FE034
:1014B00090E002C0880F991F4A95E2F780959095B9
:1014C00002C080E090E0C695C695C370822B932B36
:1014D000C23049F058F4C13019F00E94490C81C063
:1014E0000E94400C7EC00E94520C7BC00E94F40BF4
:1014F00078C0CF70DD2339F08C2F0E940E0C812F25
:101500000E940A096EC0812F0E9411098C2F0E942F
:101510001E0C67C0123F21F128F4103F41F0113F2B
:10152000C1F043C0133F19F1143F79F03EC0DD23F1
:1015300041F0053008F051C08C2F8F710E94300CA3
:101540004CC0063008F049C0F7CF8091870382FD78
:1015500018C0DD2339F08C2F8F710E940E0C3DC016
:10156000DD23C9F38C2F8F710E941E0C36C0DD2342
:1015700029F08C2F8F710E94020C2FC00E94FD0B4E
:101580002CC0DD2349F0CF718C2F0E940E0C63E03C
:101590008C2F0E94B61021C081E00E94D41002302E
:1015A000E0F082E00E94D41018C0DD2331F0002367
:1015B00091F2812F0E946D0810C0002399F2193317
:1015C00049F49FEFE7EEF3E09150E040F040E1F79F
:1015D00000C00000812F0E94BA0888EF8C0D843073
:1015E00020F40E94A5220E94FB07DD2089F00E94C2
:1015F000201080FD0DC0F70112820E941A100E9477
:101600000E0CC7010E94250B0E941A100E941E0C8E
:10161000CDB7DEB7E8E00C94782B0F931F93CF93F0
:10162000DF93EC01688179818A810E940F0D8C0122
:101630000E945B0C0E94C20BB801CE010E941809E7
:10164000DF91CF911F910F910895CF93DF93EC011C
:10165000988189812B813C81232B31F08F3F31F49C
:1016600081E09F3F19F403C081E001C080E080FD6C
:101670001AC0CE010E94890781110FC00E94241058
:10168000882389F08A81882371F08091870382FF03
:101690000AC082E00E94D41006C0CE010E940D0B49
:1016A000CE010E945E07DF91CF910895882321F03B
:1016B0000E9447100E947210089580E090E00E94FE
:1016C000C42280E090E00E94DA220E944E100E9424
:1016D0007210089580910001909101010E943823B9
:1016E0000E945D0B08950E943E100E946A0B0895AF
:1016F00092959F70963079F010F4925001C09A50F4
:10170000923068F4803F69F018F4883E40F409C0D4
:10171000843F29F406C0883E20F0813F11F080E02C
:10172000089581E00895FC019081818123813481B5
:10173000232B31F08F3F31F481E09F3F19F403C038
:1017400081E001C080E080FD07C0808191810E941E
:10175000040D0E94780B089580E00895A5E0B0E0A4
:10176000E4EBFBE00C94622B2596E2E00C947E2BDC
:10177000A6E0B0E0EEEBFBE00C94622B2696E2E0F4
:101780000C947E2B089508950E94C30B08950E9427
:10179000C40B08950E94C70B90939A0280939902FC
:1017A0000E945D0B08950E94CA0B08952091990232
:1017B00030919A02822B932B0E94CA0B089520919C
:1017C000990230919A02822393230E94CA0B0895B2
:1017D0002091990230919A02822793270E94CA0B86
:1017E00008950E94C30B08950E94F10B90939802F4
:1017F000809397020E945D0B089580E090E00E9424
:10180000F40B089521E030E0A90102C0440F551FF8
:101810008A95E2F7CA010E94F40B089521E030E0B6
:1018200002C0220F331F8A95E2F7809197029091B0
:101830009802822B932B0E94F40B089521E030E054
:1018400002C0220F331F8A95E2F7209530958091D0
:10185000970290919802822393230E94F40B08959B
:1018600021E030E002C0220F331F8A95E2F7809119
:10187000970290919802822793270E94F40B089573
:101880002091970230919802822B932B0E94F40BA7
:1018900008952091970230919802822393230E9409
:1018A000F40B089520919702309198028227932794
:1018B0000E94F40B08950895962F9770A1E001C03F
:1018C000AA0F9A95EAF793E0769567959A95E1F7CE
:1018D000660F771F660F771FFA01E60FF71F40E0CC
:1018E00050E0682F70E090819B01042E02C0369575
:1018F00027950A94E2F72170219529272A23292781
:1019000021934F5F5F4F4430510569F70895FB0104
:10191000782F777023E0969587952A95E1F7880FC1
:10192000991F880F991FE80FF91F40E050E080E0F1
:10193000219130E0072E02C0369527950A94E2F7F0
:1019400021703327042E01C0220F0A94EAF7822B5C
:101950004F5F5F4F4430510559F70895282F9A3053
:1019600070F4863060F4862F622F70E026E0929F3C
:10197000600D711D112447E752E00E945C0C089530
:101980009A3070F4863060F4292F90E067E772E0B7
:1019900036E0239F800D911D11240E94870C08952D
:1019A00080E00895A0E0B0E0E8EDFCE00C945B2B53
:1019B0007C01009197021091980280919902909178
:1019C0009A02082B192BCFE0D0E0CC24C394D12C61
:1019D000C6010C2E02C0880F991F0A94E2F78023DB
:1019E0009123892B21F4219798F7B12C07C0BC2EA5
:1019F000B7018C2F0E94B9130197A9F38B2DCDB796
:101A0000DEB7E9E00C94772BCF93DF93EC010E94D3
:101A1000D20CBE010E94B913DF91CF9108951F939C
:101A2000CF93DF93EB0190917602992321F0CB01C4
:101A30000E94040D13C0882349F0CB010E94D20CF0
:101A4000182F682FCE010E94AE0C04C0CB010E945B
:101A5000C00C182FBE01812F0E94B913DF91CF91C6
:101A60001F9108951F93CF93DF93C0919B0216E0BF
:101A700080919C02C81799F0D0E01C9FF0011D9F37
:101A8000F00D1124E356FD4F408151816281738135
:101A9000848195810E94B80B2196C770E9CFDF91B0
:101AA000CF911F9108954091CD025091CE02609147
:101AB000CF027091D0028091D1029091D2020E9407
:101AC000B80B08950F931F93CF93DF938091D202A9
:101AD00082958F7009F05AC08091CF02882309F453
:101AE00055C080919B0210919C026091CD02709133
:101AF000CE02C091D002D091D10291E06F3F09F0A7
:101B000090E0292F06E0811709F440C0209721F0CA
:101B10007F3F21F030E003C031E001C0322F90E080
:101B200030FD31C0089FF001099FF00D1124DF0145
:101B3000A356BD4F11963C911197371324C03C9189
:101B4000361321C012963C91129731111CC0139686
:101B50004D915C9114974C1B5D0B483C510598F4DA
:101B60008091D2028F7080618093D202EE55FD4F3A
:101B700080818F70806180838DEC92E00E94250BC4
:101B80000E94320D03C001968770BDCFDF91CF91C7
:101B90001F910F910895A1E1B0E0E1EDFDE00C94FB
:101BA000592B8C0185E0F801DE011D9601900D9204
:101BB0008A95E1F7F801E2809091CD026091CE0222
:101BC0002091D0023091D1022115310531F06F3FC3
:101BD00031F481E09F3F19F403C081E001C080E04F
:101BE000F82FF1709F2E80FD40C1F8014081518196
:101BF000A380B4808DECC82E82E0D82EF090CF0266
:101C0000F501E21BF30BFF2009F4DAC08091D20248
:101C1000E83CF10508F096C0282F207F09F053C05A
:101C2000561313C0491311C0FE2CE1100EC08F7063
:101C300080618093D2020E94530DC6010E94250B41
:101C40008091D202F80185834DC1A114B10431F015
:101C50005F3F31F481E04F3F19F403C081E001C0E0
:101C600080E080FD03C081E08E2502C080E090E02E
:101C7000F82FF170FF2E80FF1CC080919B022091F5
:101C80009C0236E0821709F40BC190E0389FF00106
:101C9000399FF00D1124E356FD4F6181561306C0A4
:101CA0006081461303C06281E61203C0019687700B
:101CB000E9CFFE2CEE2009F415C18091D20281609B
:101CC0008093D20254C0561306C0491304C0E110D9
:101CD00002C0F80199C0C8010E94930B882361F1EA
:101CE000EE2051F12091D202822F82958F7090E0E8
:101CF000029774F08091CD029091CE0298878F83E5
:101D00001986BB86AA862C87CE0107960E94250BD2
:101D100086E0F801ADECB2E001900D928A95E1F712
:101D20000E94620D0E94530D0AC0561711F1C8019E
:101D30000E94930B81112CC0C8010E94250BFF2427
:101D4000F394D0C0282F207F81F77A2DB98AA88AF2
:101D50006E2D89890E94AE0B8DEC92E00E94250BBE
:101D600086E0F60111928A95E9F70E94530DF12C55
:101D7000B9C04913DCCFE110DACFF8018583C8017F
:101D80000E94250B86E0F60111928A95E9F7AAC018
:101D9000EE2091F22091D202822F82958F7090E0F6
:101DA00002970CF4B5CF8091CD029091CE029A8328
:101DB00089831B82BD82AC822E83CE010196A6CF81
:101DC000E83CF10508F044C0FE2CEE2009F4B4CF45
:101DD000561330C049132EC02091D20220FD21C0DD
:101DE000822F82958F70482F50E041155105C9F020
:101DF000F80125834F30510541F08F5F982F929560
:101E0000907F822F8F70892B8583C8010E94250BBC
:101E100086E0F801ADECB2E001900D928A95E1F711
:101E20003CC086E0F801ADECB2E001900D928A95DD
:101E3000E1F758C0C8010E94930B811169CF8091CE
:101E4000D20281608093D202C8010E94250B4AC051
:101E50007A2DB98AA88A6E2D89890E94AE0B86E0F8
:101E6000F60111928A95E9F718C0EE2009F464CFC3
:101E7000C8010E94930BF82E882309F45DCF86E0F9
:101E8000F801ADECB2E001900D928A95E1F78DEC8E
:101E900092E00E9467080E94620D0E94530D22C0CA
:101EA0004D875E878D859E850E94040D292F229582
:101EB0002F70223028F49F7039F0811105C00BC0BB
:101EC000243028F49F7049F4805E883020F0C801E7
:101ED0000E94250B9F2CF92C05C0F8019581907F5D
:101EE00099F7F9CF8F2D6196EBE00C94752BACE050
:101EF000B0E0EDE7FFE00C94612B4F8358876987D2
:101F00007A878B879C87CE0107960E94CB0D88230A
:101F1000D1F09F8188852A853B85232B31F08F3F27
:101F200031F481E09F3F19F403C081E001C080E0FB
:101F300080FD47C04F81588569857A858B859C8552
:101F40000E94B80B3EC086E0FE013796DE01119676
:101F500001900D928A95E1F7FF81E8856A857B857E
:101F60006115710531F0EF3F31F481E0FF3F19F465
:101F700003C081E001C080E080FD23C020919C026D
:101F800030E0C90101968770992740919B0250E08B
:101F900084179507F1F1F983EA837D836C8396E0DA
:101FA000929FD001939FB00D1124A356BD4FFE0107
:101FB000319601900D929A95E1F780939C020E94D0
:101FC000320D16E080919B0290919C02891771F16D
:101FD000189FC001112483569D4F0E94CB0D88236A
:101FE00029F1E0919B021E9FF0011124E356FD4F61
:101FF0004081518162817381848195810E94B80BF7
:1020000080919B0290E001968770992780939B02B4
:10201000D9CF0E94730B10929C0210929B02EDECA0
:10202000F2E086E0DF011D928A95E9F72C96E3E065
:102030000C947D2B8091DB0285958595859508957F
:102040008091DB02877008959091DB02977081E0A8
:1020500009F480E008958091E60208959091E602E7
:10206000892B8093E602089580959091E60289235A
:102070008093E60208958093E60208951092E602A6
:1020800008959091E502892B8093E502089580954B
:102090009091E50289238093E50208951092E5026C
:1020A00008958091DC02089508950E9454100895C7
:1020B0000E94551008959091870392FF08C0909157
:1020C000DC02981721F08093DC020E9458100895DA
:1020D0008091DC02882329F01092DC0280E00E94CB
:1020E00058100895CF93DF93E0910001F091010122
:1020F0008091E6028083E0910001F09101019081DE
:102100008091E502892B80838091DC02882381F015
:10211000E0910001F09101019081892B80838091F1
:102120000001909101010E94F02281110E9468102B
:10213000C0910001D091010148E050E063ED72E0F0
:10214000CE010E94922B892B59F088E0FE01A3ED6D
:10215000B2E001900D928A95E1F7CE010E94B9227A
:10216000DF91CF9108950E945410089590918703B4
:1021700092FF11C098E0899F90011124262B209393
:10218000DB020E940E0C8091DB028595859585957A
:102190000E94B31008950E940E0C08951092DB0265
:1021A00080E00E94B31008952091DB028095822385
:1021B0008093DB02982F977099F430E0482F082E17
:1021C000000C550B2417350759F09091870392FFA7
:1021D00007C08595859585950E941E0C0E94CE109E
:1021E00008959091870392FB222720F9281769F020
:1021F00080FB92F9909387038091860390918703E7
:102200000E943E1182E00E94D410089580918703BD
:1022100082FB882780F991E089270E94F1100895B8
:1022200081E00E94F110089580E00E94F11008956D
:1022300080E090E00E94782E21E0883E9E4F09F0D9
:1022400020E0822F089582E090E00E94702E089591
:1022500083E090E00E94702E0895CF9384E090E098
:102260000E94702EC82F82E290E00E94702E2C2FC8
:1022700030E0A901582BCA01CF910895CF93C92FFF
:10228000682F84E090E00E947E2E6C2F82E290E026
:102290000E947E2ECF910895AB01BC018FE090E0AB
:1022A0000E94902E0895AB01BC0183E190E00E9452
:1022B000902E089560E070E0CB010E9453110895C4
:1022C00060E070E0CB010E944C110E945A11089509
:1022D00068EE7EEF80E090E00E949C2E60E082E05D
:1022E00090E00E947E2E60E083E090E00E947E2ECF
:1022F00010929A021092990260E084E090E00E94AD
:102300007E2E64E082E290E00E947E2E60E085E016
:1023100090E00E947E2E60E086E090E00E947E2E9B
:102320006FEF87E090E00E947E2E40E050E0BA011F
:1023300088E090E00E94902E60E08DE090E00E94A6
:102340007E2E40E050E0BA0188E190E00E94902E9D
:1023500060E087E190E00E947E2E40E050E0BA010C
:102360008CE190E00E94902E60E070E080E290E0CE
:102370000E949C2E40E050E0BA0188E190E00E946B
:10238000902E0E94601108950E9468110895682F90
:102390008EE090E00E947E2E08950E94F8236093C4
:1023A000F7027093F8028093F9029093FA02609317
:1023B000F3027093F4028093F5029093F60208956D
:1023C00008950E94E01108950E94E01108950E946E
:1023D000E41108950E94E01108950E94EA11089501
:1023E0000E94E01108958DED94E10E949B220E94CD
:1023F000F0110E94ED1108950E94E1110E94E01178
:1024000008950E94E0140E94FA0708950E94E323B1
:102410000E949D140E94C6160E940E160E94011270
:102420000E94C11880E00E9419190E94D0160E94D3
:10243000E71108950E94AB1681110E94E31E0895D2
:10244000AAE0B0E0E6E2F2E10C945A2B0E943316C7
:1024500089EEE82E82E0F82E670100E0F601119186
:102460006F01802F0E94FE1481270F5F0A3019F040
:102470008823A1F322C0811120C00E94EC238C018B
:102480008091E7029091E8020817190709F45EC0ED
:102490008FEF89838A831B820E94EC238160782FCF
:1024A0009D838C8349815A816B818D810E9426088E
:1024B0001093E8020093E70249C08091FB0281FD7E
:1024C0000E9404150E944606A82E10E0812F0E944B
:1024D000FE14B82EF701C080C82611F100E0DD24FB
:1024E000D3948C2D8D21B1F0AA20A1F00E831F83EF
:1024F00091E08B2D8D2109F490E098870E94EC23C8
:102500008160782F9A8789874E815F8168858A8567
:102510000E9426080F5FDD0C063019F7F701B08224
:102520001F5FFFEFEF1AFF0A1A3081F60E94CD11EC
:1025300011E00E941A120E94941B11110E94631A4A
:102540000E940D082A96EAE00C94762B10E0F1CF59
:10255000CF93DF930E94BE13EC01811522E5920711
:10256000F0F5811531E5930708F0ABC0883E910581
:1025700028F5803E910508F0DFC0883A910570F497
:10258000853A910508F07AC08130910509F473C04D
:1025900008F4CFC0049708F0CFC0CBC08F3B9105A3
:1025A00008F0C7C0C85AD0E0CC0FDD1FCC50DE4FBA
:1025B0000990D881C02DCE019464BFC0811540E53B
:1025C000940708F069C0C11580E4D80708F060C01E
:1025D000CE019A9581159F4108F4AEC0AAC081151D
:1025E00036E5930728F5811545E5940708F086C080
:1025F000C11584E5D80708F07BC0AE0143705527AC
:102600002C2F26952695C115D34508F060C081E092
:1026100090E002C0880F991F4A95E2F740E2249F9C
:1026200090011124EC01C22BD32BCE019C6885C0F4
:1026300081154AE5940780F4C11589E5D80708F0AB
:1026400066C0C11528E5D20708F473C0DC2FCC277B
:10265000CE01806F906A71C090568115904208F04B
:1026600068C08D2F8F710E945A14DD27D0628F7140
:102670009E01382B5CC081E090E05FC0C55AD0E07D
:10268000CE5DDD4F8881C82FD0E0CE01906455C06B
:10269000DF70CE01906A51C08370992721E030E04D
:1026A00002C0220F331F8A95E2F79C2F96959695CC
:1026B00040E2949FE0011124C22BD32BCE019D68F0
:1026C0003CC0D82FCC27CE01816F906A36C081E004
:1026D00090E002C0880F991F4A95E2F740E2249FDC
:1026E00090011124EC01C22BD32BCE019A6825C096
:1026F000DC2FCC27CE01846F906A1FC00E945A1431
:102700008F7190E0D82FCC27CE01906216C08C2F0D
:102710008F700E945A1494E0D695C7959A95E1F768
:10272000CF70D0E0DC2FCC27D0699E01282BC901C7
:1027300004C080E090E001C0CE01DF91CF91089508
:102740007A30A0F4663090F49CE3899FF001112464
:1027500086E0789FE00DF11D1124E60FF11DEE0FCC
:10276000FF1FE451FF4F85919491089580E090E020
:1027700008950E94A0130E94A8120895823891051E
:1027800069F1B0F48133910509F475C048F48932D8
:10279000910509F467C08A32910509F471C0089562
:1027A0008533910509F459C089339105B9F008952D
:1027B000833E910589F138F4803E9105D1F0823E47
:1027C000910529F10895863E9105C9F1873E91054D
:1027D000D9F1843E910509F06CC027C02091860391
:1027E00020FD57C021FD55C02091870323FD5BC00C
:1027F00008958091860380FD48C08091870380FF03
:1028000048C08091860384FD46C083EE51C080910C
:10281000860382FF3CC0F5CF8091860382FD37C0DE
:102820008091870380FD35C0ECCF8091870381FFC5
:1028300036C08091860384FD2EC087EE39C080911A
:10284000860383FF2AC0F5CF8091860383FD25C0D0
:102850008091870381FD23C0ECCF8091860385FDA5
:1028600022C01FC08091860385FD1BC08091870315
:1028700083FF19C00AC08091860386FD16C017C069
:102880008091860386FD13C010C089E311C082EEDB
:102890000FC080EE0DC080E00BC086EE09C084EE54
:1028A00007C085E305C089E203C08AE201C081E375
:1028B00090E008959091860392FF0DC0282F287113
:1028C000283019F4877F846006C0282F24712430B3
:1028D00011F48B7F886093FF0DC0282F2871283159
:1028E00019F4877E846106C0282F2471243111F4E5
:1028F0008B7E88612091870320FF0DC0382F3871AF
:10290000383019F4877F816006C0382F317131303B
:1029100011F48E7F886021FF0DC0282F2871283187
:1029200019F4877E816106C0282F2171213111F4AD
:102930008E7E886194FD877E0895109282031092A6
:10294000830310928403109285030895CF92DF923F
:10295000EF92FF926B017C010E94AB1681110EC0B9
:102960000E94F823C61AD70AE80AF90AC09282031D
:10297000D0928303E0928403F0928503FF90EF905E
:10298000DF90CF9008950F931F930E94AB1688237A
:1029900019F00E94F8230EC00E94F82300918203D0
:1029A000109183032091840330918503600F711F80
:1029B000821F931F1F910F91089580E0089508953D
:1029C0000E941811811102C00E94C4110E9423119B
:1029D0008093FB020E942D119093870380938603BE
:1029E0000E94DF140E94281190E00E94D30B809176
:1029F0009702909198020E94F10B0895E82FF0E061
:102A0000ED56FC4F80810895089580EA8A95F1F78C
:102A1000089500C008950E940515089508950E9424
:102A20000E1508950E940F1508950E940E15089521
:102A30000E94151508950E940E150895A5E0B0E0B6
:102A4000E4E2F5E10C945F2B0E94AB1660919D03CC
:102A50008823E9F185E0F82E8E010F5F1F4FF80102
:102A60008F2D11928A95E9F7862F90E0B8018D5647
:102A70009C4F0E94DE16882389F08091880390E0A5
:102A800045E050E0B8018D569C4F0E94922B21E00A
:102A90002093FC02892B61F410E016C08091FC02A7
:102AA0008823D1F3F8011192FA94E9F71092FC020D
:102AB000A0918803B0E0AD56BC4F85E0F8010190CD
:102AC0000D928A95E1F711E00E946D070DC070E04C
:102AD0006D567C4F8091880390E08D569C4F0E94EC
:102AE00067170E941B1510E0812F2596E5E00C94D6
:102AF0007B2BF894E82FE295EF70F0E031A1282FBE
:102B00002F7081E090E001C0880F2A95EAF7982F96
:102B10009095932391A392A1892B82A378940895F1
:102B20000F931F93CF93DF93CBE2D2E089918F3F36
:102B300011F00E94791582E0C033D807B9F7C5E2D9
:102B4000D2E00BE212E089918F3F11F00E947915DB
:102B50000C171D07C1F7DF91CF911F910F910895B9
:102B6000A0E0B0E0E6EBF5E10C945C2B8C01C62F05
:102B7000D0E0CE01855D9D4F7C01FC0190819F3F9F
:102B800009F447C0D62EF894E92FE295EF70F0E0F3
:102B900081A19F7021E030E001C0220F9A95EAF7F1
:102BA000822B81A382A12095282322A378940E94BE
:102BB0000915E5E2F2E04BE252E031E0C12C21914F
:102BC0002F3F89F0A22FA295AF70B0E090968C9124
:102BD00090E02F7002C0959587952A95E2F780FDC9
:102BE00002C0832F01C080E0C82A330F4E175F0751
:102BF00031F7F70180818F3F11F00E94791561E074
:102C0000C11001C060E08D2D0E940B15C00FD11FB7
:102C1000C882CDB7DEB7E8E00C94782B8091020132
:102C200080910201811102C095E001C090E0909373
:102C30009D0385E0891B809388030E9490158AE09C
:102C4000E3E9F3E0DF01982F1D929A95E9F7E9E8AF
:102C5000F3E0DF011D928A95E9F785E00E94711685
:102C60000E946A070895AAE0B0E0E9E3F6E10C9457
:102C70005F2B8E010F5F1F4F8AE0F80111928A953A
:102C8000E9F7F12C6F2DC8010E94B015F394F5E01F
:102C9000FF12F8CF4AE050E0B80189E893E00E94C3
:102CA000922B21E0009709F420E0892B41F08AE083
:102CB000F801A9E8B3E001900D928A95E1F76091DF
:102CC0009D0370E06D567C4F45E089E893E00E94DB
:102CD0007216182F0E941E15812B2A96E5E00C947F
:102CE0007B2B0895EF92FF920F931F93CF93DF9367
:102CF0007C018B01C42F222349F081E08093FF02E5
:102D00000E94EC239093FE028093FD028091FF02CB
:102D1000811102C080E01AC08091FD029091FE02F4
:102D20000E9404240597B0F3D0E0AE01B701C801BA
:102D30000E94922B892B39F0AE01B701C8010E9485
:102D40009F2B81E001C080E01092FF02CDB7DEB77B
:102D5000E6E00C947A2B8091020381110DC00E9451
:102D60001F2B811102C082E001C081E08093020329
:102D7000823011F40E941A2B81E09091020391306D
:102D800009F080E008950E94AB1608950E94C316D2
:102D9000809302010E94AB1681110E9416170895BC
:102DA0000E94AB16811102C00E941917089581E09C
:102DB000909103039A3008F080E008950F931F93D9
:102DC000CF93DF93EC018B01809103038A3038F4B9
:102DD000B801CE010E94641781111DC00AC0809104
:102DE0000003909101030E940424843F914080F7E6
:102DF00015C0809103038F3F19F08F5F8093030309
:102E0000809103038A3060F00E94EC2390930103C9
:102E10008093000303C01092030302C080E001C04E
:102E200081E0DF91CF911F910F9108950E9435218C
:102E300008950E9438210895A0E0B0E0E2E2F7E1B1
:102E40000C945D2B7901C82F880FDD0B41155105BE
:102E5000A9F0FE0193E0EE0FFF1F9A95E1F7ED5FF9
:102E6000FE4F818192818C5F9C4F208130E0421720
:102E7000530708F49A01A9010E949F2BCE010E94DA
:102E80002022D82E8823D1F001151105B9F083E056
:102E9000CC0FDD1F8A95E1F7FE01ED5FFE4F438108
:102EA00050E00417150708F4A801CD5FDE4F6C81D0
:102EB0007D816C5F7C4FC7010E949F2B8D2DCDB70C
:102EC000DEB7E7E00C94792B0E94591808950E9410
:102ED00070180895A4E0B0E0E0E7F7E10C94602BEF
:102EE00060911B0370911C0380911D0390911E0340
:102EF0000E941324643671058105910528F10E9412
:102F0000C314DC01CB010296A11DB11D89839A83F4
:102F1000AB83BC8300E010E020E030E044E050E010
:102F2000BE016F5F7F4F82E00E941C17182F88231D
:102F300061F00E94F82360931B0370931C0380933D
:102F40001D0390931E0301C011E0812F2496E4E03D
:102F50000C947C2BA0E0B0E0E0EBF7E10C945A2B52
:102F60007C015B016A010E94D716811103C001E058
:102F700010E002C00AE010E0C1E0D0E0B501C701F6
:102F8000F6010995811115C021960C171D0794F0C3
:102F9000CC9F9001CD9F300D300D112480E090E04A
:102FA00045E34A95F1F70000019682179307C1F7B0
:102FB000E5CF81E0CDB7DEB7EAE00C94762BA6E052
:102FC000B0E0E5EEF7E10C945A2B7B01C0903002A3
:102FD000D090310201E010E09E012A5F3F4F40E0B7
:102FE00050E060E070E080E00E941C17182F8823FA
:102FF00009F43EC056018FEFA81AB80A6091170372
:10300000709118038091190390911A030E94132460
:10301000643671058105910518F105E010E09E0107
:103020002F5F3F4F40E050E060E070E081E00E94A1
:103030001C17182F65E070E0C5010E94C21891E0CE
:103040002E81281390E0192339F10E94F823609310
:103050001703709318038093190390931A0311C0F8
:1030600065E070E0C5010E94C2189E818913D5CF2A
:1030700085E0F6013196DE01119601900D928A9558
:10308000E1F7112349F085E0FE013196A2E1B3E0BA
:1030900001900D928A95E1F785E0E2E1F3E0D70136
:1030A00001900D928A95E1F7812F2696EAE00C9423
:1030B000762B0F931F93CF93DF93EC018B014FED92
:1030C00057E10E94AA17882331F04AE657E1B80178
:1030D000CE010E94AA17DF91CF911F910F91089501
:1030E0000F931F93CF93DF93C0913002D0913102A1
:1030F000CE01019625E0FB01DC0101900D922A959D
:10310000E1F765E070E00E94C21888836E817F81DC
:103110008885998500910E0310910F03209110036B
:1031200030911103601771078207930751F0609384
:103130000E0370930F0380931003909311030E946A
:10314000A614DF91CF911F910F9108950E94ED2554
:103150000E9406120E94FA2508950E94FF250E94EF
:1031600020120E94192608950E9483230E94D325CD
:103170000E94F3110E94A6180E94AD180E94FC1133
:10318000FBCF0895FC01680F791F8FEF91E3E617DD
:10319000F70771F02191822728E030E087FF03C014
:1031A000880F892701C0880F21503109B9F7EFCF67
:1031B0000895EF92FF920F931F93CF93DF93EC014B
:1031C0007B0164E670E088E70E94F11F8C01EC0E41
:1031D000FD1ECE15DF0561F017FD0AC0FE018491CA
:1031E00064E670E00E9464208C012196892B89F3AB
:1031F0000E94DB20C801CDB7DEB7E6E00C947A2B45
:1032000008950E9400190895EEE9F3E080E092E04D
:10321000DF019C011D9221503040E1F7F093A5059C
:10322000E093A4058FEF9FEF90934B0380934A03A5
:1032300008950E9401190E9448068093460380FD6C
:1032400002C080E801C080E2809345030E94EB1F2A
:103250006DE070E08BE494E00E94D918892B11F0A6
:1032600080E008958091460363E070E081FD03C033
:1032700088E494E002C085E494E00E94D918892B88
:1032800079F76DE070E088E394E00E94D918892B0B
:1032900039F70E94F823DC01CB01805A9541AF4FEA
:1032A000BF4F8093A0059093A105A093A205B09372
:1032B000A3050E94041981E0809349038093480389
:1032C0001092470308952091450336E0839FC00183
:1032D0001124629F800D911D1124811522E0920717
:1032E00014F080E090E082569C4F9093A505809367
:1032F000A40508952091A4053091A50528593340CF
:1033000040914503642F70E0C9010E94382B481B8F
:10331000463010F4240F311D211582E0380710F0DB
:1033200020E030E022563C4F3093A5052093A405C1
:1033300008951F93CF93DF93162F8A3011F481E005
:1033400003C08D3021F480E00E94111A66C0C09144
:10335000A405D091A50596E0FE01AFE1B3E0019090
:103360000D929A95E1F7803E30F086E0FE011192D1
:103370008A95E9F70BC0F6E08F9FB0011124685AD7
:103380007B4F46E050E0CE010E94892B111135C0E1
:10339000C091A405D091A50546E050E0BE018FE1A3
:1033A00093E00E94922B892BB1F1CE59D3409E011C
:1033B00085E0369527958A95E1F781E090E0AC01AC
:1033C00002C0440F551F2A95E2F720914A0330911D
:1033D0004B03242B352B259645E0D695C7954A956A
:1033E000E1F702C0880F991FCA95E2F7822B932B51
:1033F00090934B0380934A030EC0E091A405F09193
:10340000A5059F012A5F3F4F2E173F0709F28081D4
:1034100080958193F9CF0E947A19DF91CF911F9106
:103420000895CF93E82F2091A4053091A5052E593A
:10343000334040914503642F70E0C9010E94382B4E
:10344000481B842FEE2359F066E00E942C2BC82FD6
:10345000C150B0F060E080E20E949919F9CFA90153
:10346000480F511D4115524018F080E020E030E037
:10347000280F311D22563C4F3093A5052093A405FB
:10348000CF910895FF920F931F93CF93DF93EC0199
:10349000F62EFC0101900020E9F78F01015011097F
:1034A000C017D10728F46F2D89910E949919F8CF80
:1034B000CDB7DEB7E5E00C947B2B0E94421A81E089
:1034C0000E94111A0895809149038823F9F00E94FF
:1034D000F823DC01CB01805A9541AF4FBF4F809359
:1034E000A0059093A105A093A205B093A305809198
:1034F000480381110BC062E070E086E394E00E9413
:10350000D918892B19F481E08093480380914803EE
:103510000895A0E0B0E0EFE8FAE10C94562B80911A
:103520004903882309F4DEC020914A0330914B03FC
:103530002115310509F4D6C0809147038111D2C00D
:1035400061E070E0082F10E03B01082E02C0660C1D
:10355000771C0A94E2F7A90146215721452B11F463
:103560008F5FF0CF90914603980165E0220F331FE3
:103570006A95E1F790FD12C08295880F807680935E
:103580001D01220F232F221F330B31952093200181
:10359000815E80931E011092210112C045E0369594
:1035A00027954A95E1F7220F220F220F20931D0144
:1035B00010922001295F20931E0183E08093210156
:1035C00024E630E047E050E06BE171E088E70E94DC
:1035D0009320892B09F086C08091460380FD23C08B
:1035E000A80195E0440F551F9A95E1F742565C4FAC
:1035F00004E610E020E230E060E488E70E94B420B6
:10360000892B09F06FC00E94631AE301C095D09521
:1036100080914A0390914B03C823D923D0934B0345
:10362000C0934A035FC080E2E5E2F3E0DF011D9250
:103630008A95E9F785E0000F111F8A95E1F7A6E367
:10364000B2E042E352E0992493942D91EA018991EA
:10365000AE01B801680F711D62567C4F30E02B5DE2
:103660003C4FF90197E07F01E21AF30AA92C01C04F
:10367000AA0CEA94EAF77B01B12CE70189917E015B
:103680008A21892E8B18D82DD770CD2E0D2E000CA7
:10369000DD08C82F01C0CC0FDA95EAF78C2ED19443
:1036A000C194D108D7E0CD22DD240C2C01C0869531
:1036B0000A94EAF78C2BD0808D298083B39488E01C
:1036C000B812DBCF915031969F3F69F6C2E0AA3322
:1036D000BC0709F0BACF04E610E020E230E045E292
:1036E00053E08ACFCDB7DEB7EEE00C94722B809119
:1036F000490390914803882389F0992369F062E097
:1037000070E084E394E00E94D918892B19F080912D
:1037100048030895109248039091480381E0892757
:1037200008950E944A0608950F931F9380914903BC
:10373000882389F180919E0590919F050E94042421
:10374000C29760F00E94EC2390939F0580939E05A2
:1037500060E080E00E9463190E94911B0E94891A18
:10376000809148038823B9F00E94F8230091A005B6
:103770001091A1052091A2053091A305DC01CB0198
:10378000801B910BA20BB30B8F3F9F4FAF4FBF47D7
:1037900010F40E94771B1F910F910895CF93DF9330
:1037A000EC01FB018281882309F472C1C430FDE57C
:1037B000DF0760F4CB3F9CE5D907D0F49E0122508F
:1037C0003C452431310508F064C112C0C63AEDE52C
:1037D000DE0771F030F4C2369DE5D90709F059C112
:1037E00007C09E012E5A3D452330310508F051C1D6
:1037F0000E942D119093870380938603C231ECE5DC
:10380000DE0709F405C108F04BC0C9308CE5D807C4
:1038100009F4D2C000F5C530ECE5DE0709F4B9C003
:1038200078F4C3308CE5D80709F4AAC008F0AEC01C
:10383000C230DC4509F022C1809186038160A3C0BB
:10384000C730FCE5DF0709F4AFC008F0B1C08091D4
:103850008603806198C0CD309CE5D90709F4C2C0C9
:1038600058F4CB30FCE5DF0709F4B0C008F0B6C06F
:10387000809186038860A6C0CF309CE5D90709F403
:10388000BFC008F4B2C0C031FCE5DF0709F4BCC01A
:10389000C131DC4509F0F2C0809186038F7B73C093
:1038A000C1159DE5D90709F4BEC088F5CB3FFCE5FD
:1038B000DF0709F472C0B8F4C4319CE5D90709F4F4
:1038C000C1C008F4ABC0C531DC4509F0D7C0809158
:1038D000860382FB222720F991E0922790FB82F950
:1038E00090FB83F950C0CD3F8CE5D80709F481C027
:1038F00008F456C0CE3FECE5DE0709F47DC0CF3FAB
:10390000DC4509F0BBC08091870382605DC0C23690
:103910008DE5D80709F4A6C068F4C230EDE5DE07EE
:1039200009F49CC008F484C0C330DD4509F0A6C08A
:1039300080E095C0CE3A9DE5D907F1F058F4C63A3B
:10394000DD4509F09BC080918603982F909590FBF0
:1039500080F919C0CF3A8DE5D807E1F1C03BDD45CC
:1039600009F08CC08091870383FB222720F991E026
:10397000922790FB83F980C08091870388607CC088
:103980008091860382608093860378C0809186034D
:1039900019C0809186038860F6CF8091870314C098
:1039A00080918703826068C0809186038062EBCF3C
:1039B000809186038064E7CF0E94730B8091860319
:1039C0008068E1CF8460DFCF816056C0809186033C
:1039D0008E7FD9CF80918703877F4EC080918603E9
:1039E0008D7FD1CF809186031CC080918603877F15
:1039F000CACF809187031AC0809187038D7F3CC016
:103A0000809186038F7EBFCF809186038F7DBBCF51
:103A10000E94730B809186038F77B5CF80918603C8
:103A2000877F8B7FB0CF809187038D7F8E7F24C06F
:103A300080918703982F909591708E7F892B90FBB2
:103A400081F91AC00E94730B8091860387FB22279D
:103A500020F991E0922790FB87F995CF81E00E94B1
:103A6000C7110CC08091860384FB222720F991E0C6
:103A7000922790FB84F987CF8093870380918603F8
:103A8000909187030E943E110E94730B80E001C059
:103A900081E0DF91CF910895A0E0B0E0E2E5FDE1A3
:103AA0000C945D2BE82FF0E0E856F64FD490282FC9
:103AB00026952695269530E0F901E85CF54F0491AE
:103AC000877010E0082E02C0159507950A94E2F75A
:103AD00001701127F901E85DF54FE490F12C082EF3
:103AE00002C0F594E7940A94E2F791E0E922FF24FA
:103AF000F901E85EF54FC491D0E002C0D595C795B5
:103B00008A95E2F7C170DD270115110519F081EEE4
:103B10000E946D08E114F10419F086EE0E946D0810
:103B20008D2D0E940009E114F10419F086EE0E9427
:103B3000BA080115110519F081EE0E94BA08CD2BC3
:103B400019F08CE20E940009CDB7DEB7E7E00C94D3
:103B5000792BEF92FF920F931F93CF93DF938C01FA
:103B6000F62E8AE0E82EF8018491882309F457C0E4
:103B7000813009F042C0E8012196FE018491813034
:103B800031F42196FE0184910E94000939C08230EF
:103B900039F4E8012296FE0184910E946D0830C03C
:103BA000833039F4E8012296FE0184910E94BA081C
:103BB00027C0843029F5E8012296FE01249180E097
:103BC00090E030E0205331092A30310560F4E89E5E
:103BD000A001E99E500D1124C901840F951F219663
:103BE000FE012491EECF009759F0EFE9FFE0319705
:103BF000F1F700C000000197F6CF0E944C1DE801CC
:103C00008E010F5F1F4F8F2D882309F4ACCFEFE992
:103C1000FFE03197F1F700C000008150F5CFCDB73C
:103C2000DEB7E6E00C947A2B8832910530F48E31C1
:103C30009105A8F4049770F00FC08D32910561F0E2
:103C400018F48A9761F006C08C34910541F08D32EA
:103C5000924029F080E0089582E00E94411081E0C6
:103C60000895A0E0B0E0E7E3FEE10C945D2BEC01E9
:103C70007B018D3A9D4549F4FB011281112309F422
:103C800072C00E94F51E10E06EC00E942B10D82E4C
:103C90000E945110082F0E94C21E811102C011E023
:103CA00062C00E94B91EF70112811123C1F30D29D0
:103CB0000D7909F056C0C115F5E5DF07B0F4C1155F
:103CC00023E5D20708F04FC0C11580E5D80740F4BE
:103CD000C115E0E4DE0798F5C63ED105B1F543C055
:103CE000C115F2E5DF0788F53EC0C11529E5D20709
:103CF00048F4C11588E5D807B0F5C431E5E5DE071D
:103D000021F531C0CE01905681159042F0F4F701B3
:103D10008581807FC9F48D2F8F71823169F028F4FD
:103D20008230F9F4C1EED0E010C08431E1F0863188
:103D3000C1F4C6EED2E109C0C5EED0E006C0F7017D
:103D40008581807F09F4ABCFDD270E944E10CE0124
:103D50000E94141EC82F882321F00E9472101C2F6D
:103D600002C00E94D61E812FCDB7DEB7E7E00C94CB
:103D7000792B0E94EC2388579C4E90934D0380939F
:103D80004C03089580914E030895089580914E0349
:103D900081110BC00E943E100E9468100E94B91E43
:103DA00081E080934E030E94C51E089580914E03CA
:103DB000882341F082E20E94560B10924E0380E06D
:103DC0000E94C51E089580914E03882369F00E94C9
:103DD000EC2320914C0330914D03821B930B8F3FBA
:103DE0009F4710F40E94D61E089580914E038823A9
:103DF00019F00E94D61E08950E94C61E0895CF9302
:103E0000DF9386319C4541F5EB010E942B10982FE2
:103E10008A812091000130910101882379F09A7AFA
:103E200081E009F480E080934F03911102C069E2C0
:103E300001C065E3C9010E9432230AC080914F038B
:103E4000811102C069E201C065E3C9010E94352306
:103E50000E94721080E001C081E0DF91CF9108954F
:103E60000F931F93CF93DF93C42FD22FFC01828136
:103E70008823B1F0409352030E94EC2390935103A6
:103E80008093500380E28C0F883008F04DC0C770DB
:103E900081E001C0880FCA95EAF70E940A0944C070
:103EA00080915203481330C0809150039091510388
:103EB0000E940424883C910538F510E21D0FCD17AF
:103EC000B9F080E28C0F883040F4C77081E001C007
:103ED000880FCA95EAF70E941109183010F581E0A1
:103EE0009D2F977001C0880F9A95EAF70E940A09E2
:103EF000802F0E9400091830B8F4D77081E001C00B
:103F0000880FDA95EAF70AC080E28C0F883060F4F7
:103F1000C77081E001C0880FCA95EAF70E941109B5
:103F200003C0802F0E940009DF91CF911F910F9154
:103F300008950F939C01CB01243F4CE5340731F1E8
:103F400088F4293DFCE53F07D9F02A3D4CE53407CC
:103F500079F1283D3C45A9F506E221EE41EE68EDF8
:103F60007CE52BC0263FFCE53F07E1F0A8F0273FAA
:103F70003C4539F507E225EE46EE67EF7CE51DC0CE
:103F800007E225EE45EE69ED7CE517C006E221EE7D
:103F900040EE64EF7CE511C007E225EE44EE65EFEC
:103FA0007CE50BC006E221EE42EE66EF7CE505C043
:103FB00008E221E045EE6AED7CE50E94301F80E0DA
:103FC00008C0FC018281882319F01092520301C0BD
:103FD00081E00F9108951092B9008CE08093B800B1
:103FE0000895A0E0B0E0E7EFFFE10C94592BB82E64
:103FF000EB010E94EC236C01C431D10558F0CF3F96
:104000008FEFD80759F0CE0164E170E00E94382BA1
:104010007B0107C0EE24E394F12C03C025E0E22EDF
:10402000F12C84E8A82E94EA992E1092BC0090926C
:10403000BC000E94EC238C018091BC0087FD07C06E
:10404000C8010E940424E816F906B0F729C080913F
:10405000B900887F883041F08091B900887F803135
:1040600019F00FEF1FEF1EC0B092BB00A092BC0072
:104070000E94EC238C018091BC0087FD07C0C80121
:104080000E940424E816F906B0F70AC08091B9002E
:10409000887F883111F0803421F700E010E00EC0F5
:1040A0000EEF1FEFCF3F8FEFD80709F4BECFC60149
:1040B0000E940424C817D90708F0B7CFC801CDB7AC
:1040C000DEB7EBE00C94752B0F931F93CF93DF9328
:1040D000EB018093BB0084E88093BC000E94EC233A
:1040E0008C018091BC0087FD0DC0CF3F8FEFD807BA
:1040F000C1F3C8010E940424C817D90790F78EEFB6
:104100009FEF0CC02091B900287F81E090E0283219
:1041100011F480E090E0919581959109DF91CF9124
:104120001F910F910895A0E0B0E0E9E9F0E20C944E
:104130005C2B6B018A017901B9010E94F11FE60134
:104140000C0D1D1DC017D10741F424E92093BC00BC
:10415000CDB7DEB7E8E00C94782B97FDF6CFB7012A
:1041600089910E946420EECFA0E0B0E0EAEBF0E29B
:104170000C945C2BC62F6A017901B8010E94F11FD3
:1041800097FD11C0B8018C2F0E946420E601EC0C51
:10419000FD1CCE15DF0539F097FD05C0B8018991EA
:1041A0000E946420F6CF24E92093BC00CDB7DEB78F
:1041B000E8E00C94782B84E98093BC0008958EE1AC
:1041C0004A9B02C08150E1F74A9BFECF08955A985E
:1041D00080E28A95F1F75A9A0895FC012AE02A951F
:1041E000F1F728E090E080E031E040E14A95F1F716
:1041F000880F4A9B02C08160932700C0000040E105
:104200004A95F1F7215089F720E12A95F1F729B174
:1042100000C0000030E13A95F1F722FB222720F997
:1042200092272081920F90830895A1E0B0E0EBE106
:10423000F1E20C945E2B19828C017C01E60EF11CDC
:104240000E151F0551F00E94DF20CE0101960E943D
:10425000ED20F80181938F01F3CF81E099819111D5
:1042600080E02196E6E00C947A2B529A5A9A0895AF
:1042700052985A9AEA9AE9E6F0E080818F7C80832E
:104280000895615091E001C0990F6A95EAF720E026
:1042900031E0992361F0492F482319F05A9A2327D6
:1042A00001C05A9840E24A95F1F79695F2CF222341
:1042B00011F05A9A01C05A9880E28A95F1F75A98FB
:1042C0000895FF920F931F93CF93DF93EC018C011E
:1042D000060F111DC017D10741F0F9900E94E72089
:1042E00068E08F2D0E944121F5CFCDB7DEB7E5E024
:1042F0000C947B2B1F920F920FB60F9211240F93E9
:104300001F932F933F934F935F936F937F938F935D
:104310009F93AF93BF93EF93FF93CF93DF931F923E
:10432000CDB7DEB719820E94DF20CE0101960E9430
:10433000ED20082F069506950695902F9695957079
:10434000202F2570920F292F237096959695920F06
:10435000877089135FC0898181115CC0043008F0C7
:1043600059C080E18A95F1F75A9A529A82E08A956B
:10437000F1F700C05A9888E0089F80011124D80105
:10438000AD5FBE4F1696ED91FC9117973097A9F04F
:10439000609130027091310214962D913C911597E5
:1043A000260F371F11968D919C911297680F791FD8
:1043B00013964C9113978C910995F801ED5FFE4F80
:1043C0006381662351F08091300290913102248103
:1043D0003581820F931F0E9461210E94E72080E1B6
:1043E0008A95F1F75A9852985A9A80E18A95F1F78E
:1043F000F801ED5FFE4F6081662351F0809130023D
:104400009091310221813281820F931F0E941521E8
:104410000E94DF200F90DF91CF91FF91EF91BF912C
:10442000AF919F918F917F916F915F914F913F914C
:104430002F911F910F910F900FBE0F901F90189505
:104440000F931F93CF93DF93843091050CF06DC0D1
:10445000EC01F894529A5A9885E08A95F1F7000099
:104460009C2F969595702C2F2570920F892F837015
:104470009695969523E0CC0FDD1F2A95E1F7980FCE
:104480008E01092B0E94E72084E08A95F1F700C095
:1044900068E0802F0E94412180E18A95F1F75298CF
:1044A0005A9A4A9902C000C0FCCF87E090E04A9B2C
:1044B00008C0019721F4529A5A9A789436C000C0E5
:1044C000F6CFFE01ED5FFE4F6381662381F08091A0
:1044D00030029091310224813581820F931F0E9416
:1044E0001521811104C0529A5A9A78941FC00E94D3
:1044F000DF2080E28A95F1F75A98529A80E18A95F6
:10450000F1F7CD5FDE4F6881662351F08091300274
:104510009091310229813A81820F931F0E9461217B
:104520000E94E720789481E001C080E0DF91CF9184
:104530001F910F91089590933B0280933A02089542
:10454000909359038093580308950E94AB168111EC
:1045500003C0809153030895E0915803F0915903EB
:10456000309729F00190F081E02D0995089580E0C1
:104570000895E0915803F0915903309721F002809B
:10458000F381E02D0995089520915603309157034A
:104590002817390771F09093570380935603E091E1
:1045A0005803F0915903309721F00680F781E02DF0
:1045B0000995089520915403309155032817390720
:1045C00071F09093550380935403E0915803F09158
:1045D0005903309721F00084F185E02D0995089565
:1045E000FC01329697E080E0915029F0219122233E
:1045F000D9F38F5FF9CF0895662349F0FC01329615
:1046000008962191621729F0E817F907D1F780E0A1
:10461000089581E008959C01FC0132969FEF80E0AF
:104620004191461789F09F3F19F4411101C0982F1D
:104630008F5F8630A9F79F3F39F0F901E90FF11D2F
:1046400097FDFA956283089508959C012A5F3F4F74
:10465000FC014281461301C0128201968217930722
:10466000B9F708950E940B2308950E942523089509
:10467000029626E0FC0111922A95E9F70895089523
:104680000E943F23089583E080935A030E944023B1
:104690000895811102C081E001C082E080935A0335
:1046A0000E94402308950E944923089581E0809349
:1046B0005A030E94402308950E94562308950895A6
:1046C0000E945F2308950E94602308950E945F2343
:1046D00008950E945F2308950E945F230895CF9359
:1046E0000E9469230E9433160E946623C0E08C2F2B
:1046F0000E94FE14811104C0CF5FCA30C1F701C00F
:1047000081E0CF91089585B7806885BF85B78068BF
:1047100085BF08951F920F920FB60F9211248F93A9
:104720009F93AF93BF9380915B03811113C08091DE
:10473000A6059091A705A091A805B091A90541965D
:10474000A11DB11D8093A6059093A705A093A80570
:10475000B093A905BF91AF919F918F910F900FBE1C
:104760000F901F9018958091AE05843031F10E9412
:10477000E50710925B0320E488E190E00FB6F8941F
:10478000A895809360000FBE2093600083B7817F5F
:10479000846083BF83B7816083BF7894889583B733
:1047A0008E7F83BF0FB6F894A895809160008861D2
:1047B00080936000109260000FBE08950E94730BFA
:1047C0000E94EC07089582E084BD93E095BD9AEFC6
:1047D00097BD80936E0008952FB7F8948091A60539
:1047E0009091A705A091A805B091A9052FBF0895A4
:1047F0002FB7F8946091A6057091A7058091A80540
:104800009091A9052FBF08959C014FB7F89480910E
:10481000A6059091A705A091A805B091A9054FBF45
:10482000821B930B0895CF92DF92EF92FF922FB7E6
:10483000F894C090A605D090A705E090A805F09048
:10484000A9052FBFA7019601261B370B480B590B53
:10485000CA01B901FF90EF90DF90CF90089578944E
:104860001F920F920FB60F9211248F939F93AF93C5
:10487000BF938091A6059091A705A091A805B0913E
:10488000A9050196A11DB11D8093A6059093A705CA
:10489000A093A805B093A905BF91AF919F918F9167
:1048A0000F900FBE0F901F90189587E797E7909392
:1048B0000108809300089AE088E10FB6F894A89563
:1048C000809360000FBE90936000FFCF9AE088E174
:1048D0000FB6F894A895809360000FBE9093600087
:1048E000FFCF8091670308950895CF93DF9321E070
:1048F0002093E9002FEF3091E800215035FD06C0EC
:1049000035ED3A95F1F700002111F5CF2091E8003F
:1049100025FF14C0EC0140E050E068E070E00E9428
:104920008C268091E8008E778093E80088E0FE0175
:10493000AFE5B3E001900D928A95E1F7DF91CF9159
:10494000089580935C0370935E0360935D03809190
:10495000AE05843001F582E08093E9008FEF9091FD
:10496000E800815095FD06C095ED9A95F1F700009D
:104970008111F5CF8091E80085FF0DC040E050E047
:1049800063E070E08CE593E00E948C268091E80063
:104990008E778093E8000895BC0184E00E94A124F2
:1049A0000895BC0183E00E94A12408950895809198
:1049B000AD05811109C00E9417280E9474288091BA
:1049C000E20084608093E20008951092AD0508959E
:1049D0000E945C2308956091AA0581E0611101C0E5
:1049E00080E00E94432308959091AE0581E09430C9
:1049F00009F080E06091AA050E944923089542E0F1
:104A000061EC81E00E94902742E261EC82E00E942A
:104A100090279091AE0581E0943009F080E060919C
:104A2000AA050E94532308958091B005833009F4AC
:104A300061C030F4813071F0823009F49BC0089578
:104A40008A3009F487C08B3009F46CC0893009F0D2
:104A5000A9C020C08091AF05813A09F0A3C0809120
:104A6000E800877F8093E8008091B3059091B405BA
:104A7000892B21F468E08FE593E003C060E080E0DB
:104A800090E070E00E94D1268091E8008B778093BF
:104A9000E80008958091AF05813209F083C08091CC
:104AA000B3059091B405029708F07CC08091E800AE
:104AB000877F8093E8008091E80082FD05C08091A7
:104AC000AE058111F8CF6EC02091F3008091F20005
:104AD00090E0922B029731F48091F100813011F037
:104AE000863021F48091F100809367038091E80083
:104AF0008B7754C08091AF05813A09F053C0809103
:104B0000B3059091B405892B09F04CC08091E80061
:104B1000877F8093E8008091E80080FFFCCF809140
:104B20002E0137C08091AF058132E1F58091B30548
:104B30009091B405892BB1F58091E800877F80932F
:104B4000E8000E94C5278091B10580932E010E9444
:104B5000730B08958091AF05813221F58091E800B3
:104B6000877F8093E8000E94C5278091B2058093DB
:104B7000680308958091AF05813AA1F48091E8001F
:104B8000877F8093E8008091E80080FFFCCF8091D0
:104B900068038093F1008091E8008E778093E800AD
:104BA0000E94C527089584B7877F84BF0FB6F89405
:104BB000A8958091600088618093600010926000E9
:104BC0000FBE90E080E80FB6F89480936100909358
:104BD00061000FBE0E94562308950E9417280E946C
:104BE0007428E2EEF0E080818460808378940E94F3
:104BF000FF2A089582E291E00E94A0220895809108
:104C0000AE058530A9F48091AE05853079F40E9417
:104C1000B3238091AC058823B1F30E946F238823CE
:104C200091F30E9476260E94730BEDCF0E94DE2343
:104C3000089508950E941D260895292F33272330B3
:104C40003105C9F060F42130310581F022303105A1
:104C500009F044C08BE390E02EE63AE043C02132F5
:104C60003105E1F02232310549F138C082E190E0AE
:104C700029EA3AE037C099278130910549F028F0B8
:104C8000029761F5E8E4FAE005C0EAE6FAE002C05E
:104C9000E8E5FAE0849190E09F0124C06115710578
:104CA00041F061307105D1F489E090E029E93AE002
:104CB00019C089E090E020E83AE014C06115710560
:104CC00041F06130710551F482E390E02BEB3AE062
:104CD00009C080E490E02DEE3AE004C080E090E06E
:104CE00020E030E0FA0131832083089580E189BD1E
:104CF00082E189BD09B400FEFDCF8091D8008F7D8F
:104D00008093D8008091E00082608093E0008091E1
:104D1000E00081FDFCCF0895A0E0B0E0E2E9F6E21A
:104D20000C945C2BEC018B017A010E94E427811129
:104D300033C0E114F10439F0F70180819181081B3F
:104D4000190BC80FD91FC12CD12C0115110519F150
:104D50008091E80085FD16C08091E8008E778093F1
:104D6000E800E114F10449F0F70180819181C80E57
:104D7000D91ED182C08285E00FC00E94E42788231B
:104D800021F30AC089918093F10001501109FFEFCE
:104D9000CF1ADF0ADACF80E0CDB7DEB7E8E00C94B7
:104DA000782B2091B5053091B6052617370748F0C6
:104DB0006115710539F42091E8002E772093E80001
:104DC00001C0B901FC0120E06115710579F1809104
:104DD000AE058823F1F18530F1F18091E80083FD83
:104DE0003CC08091E80082FD2EC08091E80080FFE9
:104DF000EBCF2091F3008091F20090E0922B6115AF
:104E0000710551F08830910538F421912093F1001B
:104E1000615071090196F3CF21E0089709F020E075
:104E20008091E8008E778093E800CECF2111CFCF1C
:104E30000AC08091AE05882361F0853061F08091D1
:104E4000E80083FD0AC08091E80082FFF2CF80E095
:104E5000089582E0089583E0089581E00895209107
:104E6000B5053091B6052617370748F0611571056D
:104E700039F42091E8002E772093E80001C0B901B1
:104E8000FC0120E06115710591F18091AE05882348
:104E900009F440C0853009F43FC08091E80083FDEB
:104EA0003DC08091E80082FD2FC08091E80080FF26
:104EB000E9CF2091F3008091F20090E0922B6115F0
:104EC000710559F08830910540F424912093F10048
:104ED0003196615071090196F2CF21E0089709F0EF
:104EE00020E08091E8008E778093E800CBCF2111FD
:104EF000CCCF0AC08091AE05882361F0853061F087
:104F00008091E80083FD0AC08091E80082FFF2CF23
:104F100080E0089582E0089583E0089581E0089597
:104F2000982F973068F59093E900981739F07091B1
:104F3000EC002091ED005091F00003C0242F762F5B
:104F400050E021FD02C09F5FECCF3091EB003E7F2F
:104F50003093EB003091ED003D7F3093ED003091C8
:104F6000EB0031603093EB007093EC002093ED0088
:104F70005093F0002091EE0027FDE5CF80E00895EA
:104F80008F708093E90081E008958091AF0587FFDD
:104F900011C08091E80082FD05C08091AE058111AD
:104FA000F8CF11C08091E8008B770BC08091AE05DF
:104FB000882349F08091E80080FFF8CF8091E800D5
:104FC0008E778093E80008952091E4003091E50009
:104FD00095E64091EC00842F817040FF23C08091C2
:104FE000E80080FD1DC08091AE05882399F08530D2
:104FF00099F08091EB0085FD11C04091E400509143
:10500000E5002417350729F3915011F09A01E1CFFB
:1050100084E0089582E0089583E0089581E0089592
:1050200080E008954091E80042FFDDCF08950E949E
:1050300086280E948E28E0EEF0E0808181608083E7
:10504000E8EDF0E080818F77808319BCA7EDB0E0B8
:105050008C918E7F8C9380818F7E80831092AD05A2
:1050600008950F931F93CF93DF930E9486280E9489
:105070008E28C8EDD0E088818F778883888180680A
:10508000888388818F7D888319BC1092AE05109229
:10509000AA051092AC051092AB0500EE10E0F801E5
:1050A00080818B7F808388818160888342E060E09B
:1050B00080E00E949027E1EEF0E080818E7F808387
:1050C000E2EEF0E08081816080838081886080836F
:1050D000F80180818E7F8083888180618883DF9161
:1050E000CF911F910F910895E8EDF0E080818F7EC0
:1050F0008083E7EDF0E080818160808384E082BF7F
:1051000081E08093AD050E9431280895E8EDF0E03C
:1051100080818E7F80831092E20008951092DA00E1
:105120001092E10008951F920F920FB60F92112472
:105130002F933F934F935F936F937F938F939F939F
:10514000AF93BF93EF93FF938091E10082FF0BC079
:105150008091E20082FF07C08091E1008B7F809305
:10516000E1000E94FE2A8091DA0080FF1FC080913A
:10517000D80080FF1BC08091DA008E7F8093DA0018
:105180008091D90080FF0DC080E189BD82E189BD99
:1051900009B400FEFDCF81E08093AE050E94D724C4
:1051A00005C019BC1092AE050E94E5248091E10073
:1051B00080FF19C08091E20080FF15C08091E2005D
:1051C0008E7F8093E2008091E20080618093E20014
:1051D0008091D80080628093D80019BC85E08093CC
:1051E000AE050E94EB248091E10084FF30C08091E5
:1051F000E20084FF2CC080E189BD82E189BD09B451
:1052000000FEFDCF8091D8008F7D8093D8008091E3
:10521000E1008F7E8093E1008091E2008F7E809399
:10522000E2008091E20081608093E2008091AA0513
:10523000882311F084E007C08091E30087FD02C05D
:1052400081E001C083E08093AE050E94F424809148
:10525000E10083FF29C08091E20083FF25C0809197
:10526000E100877F8093E10082E08093AE05109299
:10527000AA058091E1008E7F8093E1008091E20099
:105280008E7F8093E2008091E20080618093E20053
:1052900042E060E080E00E9490278091F00088600A
:1052A0008093F0000E94E824FF91EF91BF91AF91AD
:1052B0009F918F917F916F915F914F913F912F912E
:1052C0000F900FBE0F901F9018951F920F920FB660
:1052D0000F9211242F933F934F935F936F937F937C
:1052E0008F939F93AF93BF93CF93DF93EF93FF93EE
:1052F000C091E900CF708091EC00D82FD17080FD73
:10530000D0E81092E9008091F000877F8093F00050
:1053100078940E94A9291092E9008091F000886099
:105320008093F000CD2BCF70C093E900FF91EF91F7
:10533000DF91CF91BF91AF919F918F917F916F91AD
:105340005F914F913F912F910F900FBE0F901F9043
:105350001895AAE2B0E0EFEAF9E20C94612BEFEACB
:10536000F5E08091F100819325E0E73BF207C9F772
:105370000E9414258091E80083FF2EC18091AF0523
:105380009091B005492F50E04A30510508F024C1F2
:10539000FA01EE59FF4F0C944C2B803821F08238E3
:1053A00009F01AC108C08091AB059091AC05992312
:1053B00089F082600FC08091B3058F70873008F04C
:1053C0000BC18093E9008091EB0085FB882780F971
:1053D0001092E9009091E800977F9093E800809305
:1053E000F1001092F100D1C0282F2D7F09F0F4C0F8
:1053F000882319F0823061F0EFC08091B1058130CF
:1054000009F0EAC0933009F080E08093AC052EC02B
:105410008091B10581112AC08091B3058F702FEF63
:10542000280F263008F0D8C08093E9002091EB00C7
:1054300020FF1CC0933021F48091EB00806214C0E7
:105440009091EB0090619093EB0021E030E0A90196
:1054500002C0440F551F8A95E2F74093EA0010926C
:10546000EA008091EB0088608093EB001092E900E5
:105470008091E800877F8093E8000E94C527ACC038
:105480008111AAC01091B1051F778091E300807847
:10549000812B8093E3008091E800877F8093E80070
:1054A0000E94C5278091E80080FFFCCF8091E30037
:1054B00080688093E300111102C082E001C083E0A4
:1054C0008093AE0589C08058823008F085C08091F5
:1054D000B1059091B2058C3D53E0950779F583E0D5
:1054E0008A838AE289834FB7F894DE01139620E01D
:1054F0003EE051E2E32FF0E050935700E49120FFAB
:1055000003C0E295EF703F5FEF708E2F90E0EA30BE
:1055100010F0C79601C0C0968D939D932F5F2431E4
:1055200049F74FBF8091E800877F8093E8006AE2E7
:1055300070E0CE0101960E94D12616C06091B3059D
:105540007091B405AE014F5F5F4F0E941A26BC01F7
:10555000892B09F441C09091E800977F9093E8006F
:1055600089819A810E942F278091E8008B77809310
:10557000E80032C0803881F58091E800877F809311
:10558000E8008091AA058093F1008091E8008E7771
:1055900072CF811121C08091B1059091B2059927F8
:1055A0000297D4F48091E800877F8093E80080918F
:1055B000B1058093AA050E94C5278091AA05811193
:1055C00006C08091E30087FD02C081E001C084E055
:1055D0008093AE050E94FF248091E80083FF0AC0FB
:1055E0008091E800877F8093E8008091EB008062E3
:1055F0008093EB00AA96E3E00C947D2B0895CF9363
:105600008091AE058823A1F0C091E900CF70909100
:10561000EC00892F817090FD80E8C82B1092E90082
:105620008091E80083FD0E94A929CF70C093E90012
:10563000CF9108950E9417281092AE050895E8EDC5
:10564000F0E08081806180838AE18A95F1F700C073
:105650008091D90081700895991B79E004C0991F49
:10566000961708F0961B881F7A95C9F780950895BC
:10567000AA1BBB1B51E107C0AA1FBB1FA617B70778
:1056800010F0A61BB70B881F991F5A95A9F7809594
:105690009095BC01CD010895EE0FFF1F0590F49188
:1056A000E02D09942F923F924F925F926F927F92DA
:1056B0008F929F92AF92BF92CF92DF92EF92FF9222
:1056C0000F931F93CF93DF93CDB7DEB7CA1BDB0BCE
:1056D0000FB6F894DEBF0FBECDBF09942A88398873
:1056E00048885F846E847D848C849B84AA84B9847A
:1056F000C884DF80EE80FD800C811B81AA81B98186
:10570000CE0FD11D0FB6F894DEBF0FBECDBFED0199
:105710000895FB01DC0102C005900D9241505040FC
:10572000D8F70895FB01DC0104C08D910190801928
:1057300021F441505040C8F7881B990B0895FB0194
:10574000DC0102C001900D9241505040D8F70895FD
:10575000FB01DC0101900D920020E1F70895AEE01D
:10576000B0E0E5EBFBE20C94602B0D891E898F897C
:10577000988D26E02C831A83098397FF02C080E06E
:1057800090E801979E838D83AE01455E5F4F698DE2
:105790007A8DCE0101960E94DF2B4D815E8157FDEF
:1057A0000AC02F813885421753070CF49A01F8017B
:1057B000E20FF31F10822E96E4E00C947C2BABE0FA
:1057C000B0E0E5EEFBE20C94522B6C017B018A0108
:1057D000FC0117821682838181FFCCC1CE01019624
:1057E0003C01F6019381F70193FD859193FF81912F
:1057F0007F01882309F4BAC1853239F493FD85917C
:1058000093FF81917F01853229F4B60190E00E94D7
:10581000D62DE7CF912C212C312CFFE1F315D8F0B8
:105820008B3279F038F4803279F08332A1F4232D71
:1058300020611DC08D3261F0803369F4232D216019
:1058400016C0832D8260382EE32DE4603E2E2AC0E0
:10585000F32DF8601DC037FC2DC020ED280F2A3035
:1058600040F08E32B9F436FC81C1232D2064322EF3
:1058700019C036FE06C08AE0989E200D1124922E93
:1058800011C0EAE02E9E200D1124222EF32DF0628D
:105890003F2E08C08C3621F4832D8068382E02C03C
:1058A000883641F4F70193FD859193FF81917F0143
:1058B0008111B3CF982F9F7D9554933028F40C5FBE
:1058C0001F4F9FE399830DC0833631F0833771F00A
:1058D000833509F059C021C0F801808189830E5FAA
:1058E0001F4F88248394912C530113C02801F2E0A8
:1058F0004F0E511CF801A080B18036FE03C0692D07
:1059000070E002C06FEF7FEFC5010E94CB2D4C010C
:105910008201F32DFF773F2E16C0280122E0420EB0
:10592000511CF801A080B18036FE03C0692D70E0E3
:1059300002C06FEF7FEFC5010E94C02D4C01F32D17
:10594000F0683F2E820133FC1BC0822D90E0881648
:105950009906B0F4B60180E290E00E94D62D2A9418
:10596000F4CFF50137FC859137FE81915F01B601D7
:1059700090E00E94D62D21102A9421E0821A9108ED
:105980008114910471F7E8C0843611F0893641F52D
:10599000F80137FE07C060817181828193810C5FBD
:1059A0001F4F08C060817181072E000C880B990B76
:1059B0000E5F1F4FF32DFF763F2E97FF09C0909586
:1059C0008095709561957F4F8F4F9F4FF0683F2E68
:1059D0002AE030E0A3010E94122E882E861845C0CE
:1059E000853731F4232D2F7EB22E2AE030E025C0FA
:1059F000932D997FB92E8F36C1F018F4883579F040
:105A0000B5C0803719F0883721F0B0C0E92FE061C8
:105A1000BE2EB4FE0DC0FB2DF460BF2E09C034FEB7
:105A20000AC0292F2660B22E06C028E030E005C04B
:105A300020E130E002C020E132E0F801B7FE07C00B
:105A400060817181828193810C5F1F4F06C06081EC
:105A5000718180E090E00E5F1F4FA3010E94122E23
:105A6000882E8618FB2DFF773F2E36FE0DC0232D86
:105A70002E7FA22E891458F434FE0BC032FC09C0CC
:105A8000832D8E7EA82E05C0B82CA32C03C0B82C65
:105A900001C0B92CA4FE0FC0FE01E80DF11D8081EC
:105AA000803321F49A2D997EA92E09C0A2FE06C04A
:105AB000B394B39404C08A2D867809F0B394A3FC00
:105AC00011C0A0FE06C0B21488F4280C922C9B18BA
:105AD0000EC0B21460F4B60180E290E00E94D62DB0
